:100000000C9446000C9465000C9465000C946500FB
:100010000C9465000C9465000C9465000C946500CC
:100020000C9465000C9465000C9465000C946500BC
:100030000C9465000C9423020C9465000C946500EC
:100040000C9465000C9465000C9465000C9465009C
:100050000C9465000C9465000C9465000C9465008C
:100060000C9465000C9465000C9465000C9465007C
:100070000C9465000C9465000C9465000C9465006C
:100080000C9465000C9465000C94650011241FBE4F
:10009000CFEFD0E4DEBFCDBF11E0A0E0B1E0ECE7F0
:1000A000FAE000E00BBF02C007900D92A235B10745
:1000B000D9F721E0A2E5B1E001C01D92A336B20755
:1000C000E1F70E948D030C943C050C94000040E085
:1000D00050E00CC000002F5F3F4F02C020E030E036
:1000E000273063E03607B4F34F5F5F4F4817590777
:1000F000ACF308959BB19F7B9BB988B98BB18068A5
:100100008BB900008BB18F778BB982E090E00E94B1
:100110006700089581E00E947A000895813120F4FB
:1001200081580E947A00089581550E947A000895AE
:1001300084E690E00E94670088E30E947A0086E0EF
:100140000E947A008FE00E947A0081E00E947A008B
:100150008AE090E00E94670008959BB190649BB98B
:1001600088B98BB180688BB900008BB18F778BB960
:1001700081E090E00E9467000895EF92FF920F9354
:100180001F93CF93DF93182FEB010E948A000EC0BC
:1001900001E0010F812F0E948E007E018FEFE81A8F
:1001A000F80A88810E94AD00102FE7018881811133
:1001B000EFCFDF91CF911F910F91FF90EF900895B6
:1001C000CF93C82F8A3019F48DE00E94E00080910F
:1001D000C00085FFFCCFC093C60080E090E0CF91C7
:1001E0000895EAE7F0E08081806E8083089582348C
:1001F00061F018F4813431F00895833449F0843487
:1002000051F0089561B942B9089564B945B90895A6
:1002100067B948B908956AB94BB9089570E09B0170
:1002200002C0359527958A95E2F7C9018170089536
:1002300021E030E0A90102C0440F551F8A95E2F782
:10024000CA01862B089521E030E002C0220F331F3F
:100250008A95E2F7822F80958623089521E030E089
:10026000A90102C0440F551F8A95E2F7CA018627EB
:10027000089582309105A1F028F4009749F0019784
:1002800051F01DC08330910581F0049799F017C09B
:1002900081E090E008956623A9F082E090E008955F
:1002A000662399F083E090E00895662389F083E067
:1002B00090E00895662379F082E090E0089580E070
:1002C00090E0089581E090E0089584E090E0089542
:1002D00084E090E0089581E090E008950E940E018E
:1002E00091E0811190E0892F0895CF92DF92EF92F3
:1002F000FF926B017C0160915F01709160018091C0
:10030000610190916201A70196010E94A8038823D0
:1003100009F458C020E030E0A901C701B6010E94ED
:10032000A803811106C0E1E9F0E080818870808334
:1003300005C0E1E9F0E080818360808328E539E34E
:1003400044E75FE3C701B6010E94A80388233CF499
:100350008FEF9FEF909399008093980027C020E043
:1003600034E244EF56E4C701B6010E94CA041816ED
:100370002CF4109299001092980018C020E030E000
:1003800040E053E4C701B6010E94CF049B01AC01D9
:1003900060E074E284EF9AE40E94AD030E941F04BF
:1003A00061507109709399006093980010929500C4
:1003B00010929400C0925F01D0926001E0926101BE
:1003C000F0926201FF90EF90DF90CF90089580E46B
:1003D000809390008BE08093910060E070E0CB010F
:1003E0000E94750108951092900010929100089556
:1003F0008BE0809381008DE790E09093890080935B
:10040000880082E080936F00109285001092840033
:1004100080910D0190910E01A0910F01B0911001FA
:100420008093520190935301A0935401B0935501CE
:100430008FB780688FBF089510928100089581E082
:100440008093560108951F920F920FB60F921124B8
:100450000BB60F922F933F934F935F936F937F93BE
:100460008F939F93AF93BF93EF93FF93809152012C
:1004700090915301A0915401B09155010197A109A8
:10048000B1098093520190935301A0935401B0930A
:100490005501892B8A2B8B2B91F40E941F0280918E
:1004A0000D0190910E01A0910F01B0911001809368
:1004B000520190935301A0935401B0935501FF91C1
:1004C000EF91BF91AF919F918F917F916F915F91CC
:1004D0004F913F912F910F900BBE0F900FBE0F9039
:1004E0001F90189560930D0170930E0180930F017A
:1004F00090931001609352017093530180935401C3
:10050000909355010895861708F4682F862F089553
:10051000681708F4682F862F08958130910579F0C7
:1005200028F08230910529F0039731F481E090E0C2
:10053000089583E090E0089580E090E0089582E0DF
:1005400090E008958230910559F08330910521F0B3
:10055000019721F481E0089584E008958FEF0895D4
:1005600082E0089580910B0190910C018C3221E082
:10057000920798F080915D0190915E010E948D023A
:1005800090935E0180935D010E94A20280930A0114
:1005900010920C0110920B0105C0019690930C0172
:1005A00080930B0180910A0108958130910549F0F3
:1005B00010F0029719F481E090E0089580E090E057
:1005C000089582E090E008958130910519F0029736
:1005D00029F002C088E008958FEF089580E0089523
:1005E0008091080190910901883E23E0920798F0DC
:1005F00080915B0190915C010E94D50290935C0117
:1006000080935B010E94E40280930701109209012C
:100610001092080105C0019690930901809308018A
:100620008091070108958130910549F010F00297FB
:1006300019F481E090E0089580E090E0089582E070
:1006400090E008958130910519F0029729F002C0D9
:1006500080E108958FEF089580E00895809105016D
:10066000909106018230910598F080915901909106
:100670005A010E94130390935A01809359010E94DA
:10068000220380930401109206011092050105C017
:100690000196909306018093050160B182E00E946B
:1006A0006E01811102C0109204018091040108952D
:1006B00090910301981719F08093030185B908956B
:1006C00020910101309102012115310549F0682B7B
:1006D000462B40930001109202011092010106C0C6
:1006E0002F5F3F4F30930201209301018091000161
:1006F00008950E94B202809358010E94F0028093F4
:1007000057010E942E03482F609157018091580194
:100710000E9460030E94580308954FEF60E081E457
:100720000E94F70040E06FEF82E40E94F70061E072
:1007300070E080E090E00E9472020E94F8010E9446
:100740007903809156018823E1F310925601F7CF87
:100750000E94550408F481E008950E94C1030C949E
:1007600090040E94890458F00E94820440F029F409
:100770005F3F29F00C94790451110C94C4040C943B
:100780007F040E94A10468F39923B1F3552391F3E8
:10079000951B550BBB27AA2762177307840738F0F0
:1007A0009F5F5F4F220F331F441FAA1FA9F335D04D
:1007B0000E2E3AF0E0E832D091505040E695001C01
:1007C000CAF72BD0FE2F29D0660F771F881FBB1FBB
:1007D000261737074807AB07B0E809F0BB0B802D99
:1007E000BF01FF2793585F4F3AF09E3F510578F0C5
:1007F0000C9479040C94C4045F3FE4F3983ED4F362
:10080000869577956795B795F7959F5FC9F7880F98
:10081000911D9695879597F90895E1E0660F771FEA
:10082000881FBB1F621773078407BA0720F0621B7B
:10083000730B840BBA0BEE1F88F7E09508950E94A6
:1008400026046894B1110C94C40408950E94A9046C
:1008500088F09F5798F0B92F9927B751B0F0E1F081
:10086000660F771F881F991F1AF0BA95C9F714C031
:10087000B13091F00E94C304B1E008950C94C30418
:10088000672F782F8827B85F39F0B93FCCF386956A
:1008900077956795B395D9F73EF4909580957095C7
:1008A00061957F4F8F4F9F4F0895990F0008550F07
:1008B000AA0BE0E8FEEF16161706E807F907C0F0E6
:1008C00012161306E407F50798F0621B730B840BEE
:1008D000950B39F40A2661F0232B242B252B21F4C8
:1008E00008950A2609F4A140A6958FEF811D811D68
:1008F000089597F99F6780E870E060E008959FEFA2
:1009000080EC089500240A941616170618060906A6
:10091000089500240A941216130614060506089575
:10092000092E0394000C11F4882352F0BB0F40F4FD
:10093000BF2B11F460FF04C06F5F7F4F8F4F9F4F3D
:10094000089557FD9058440F551F59F05F3F71F0BF
:100950004795880F97FB991F61F09F3F79F0879526
:100960000895121613061406551FF2CF4695F1DFAF
:1009700008C0161617061806991FF1CF869571053F
:10098000610508940895E894BB2766277727CB0173
:1009900097F908950E94550408F48FEF08950E9476
:1009A000E2040C9490040E94820438F00E948904AE
:1009B00020F0952311F00C9479040C947F041124F9
:1009C0000C94C4040E94A10470F3959FC1F3950F89
:1009D00050E0551F629FF001729FBB27F00DB11DC3
:1009E000639FAA27F00DB11DAA1F649F6627B00D53
:1009F000A11D661F829F2227B00DA11D621F739F3C
:100A0000B00DA11D621F839FA00D611D221F749F49
:100A10003327A00D611D231F849F600D211D822F90
:100A2000762F6A2F11249F5750409AF0F1F08823B7
:100A30004AF0EE0FFF1FBB1F661F771F881F9150E4
:100A40005040A9F79E3F510580F00C9479040C9416
:100A5000C4045F3FE4F3983ED4F386957795679599
:100A6000B795F795E7959F5FC1F7FE2B880F911D0E
:0C0A70009695879597F90895F894FFCFAC
:100A7C00FF0100FFFF0200FFE803FF2C0101000053
:100A8C0000A4D082437BD49243A4D0A443719DAEE6
:100A9C00439A19C4430000DC43A4F0F64300D0028F
:100AAC00440000000200000000E000000000000014
:100ABC000000000706050403020100070800FFFF01
:020ACC00000028
:00000001FF
