:100000000C9446000C9465000C9465000C946500FB
:100010000C9465000C9465000C9465000C946500CC
:100020000C9465000C9465000C9465000C946500BC
:100030000C9465000C94E7010C9465000C94650029
:100040000C9465000C9465000C9465000C9465009C
:100050000C9465000C9465000C9465000C9465008C
:100060000C9465000C9465000C9465000C9465007C
:100070000C9465000C9465000C9465000C9465006C
:100080000C9465000C9465000C94650011241FBE4F
:10009000CFEFD0E4DEBFCDBF11E0A0E0B1E0E0E7FC
:1000A000F9E000E00BBF02C007900D92AE36B10739
:1000B000D9F721E0AEE6B1E001C01D92AD37B2073D
:1000C000E1F70E9401030C94B6040C94000040E098
:1000D00050E00CC000002F5F3F4F02C020E030E036
:1000E000273063E03607B4F34F5F5F4F4817590777
:1000F000ACF308959BB19F7B9BB988B98BB18068A5
:100100008BB900008BB18F778BB982E090E00E94B1
:100110006700089581E00E947A000895813120F4FB
:1001200081580E947A00089581550E947A000895AE
:1001300084E690E00E94670088E30E947A0086E0EF
:100140000E947A008FE00E947A0081E00E947A008B
:100150008AE090E00E94670008959BB190649BB98B
:1001600088B98BB180688BB900008BB18F778BB960
:1001700081E090E00E9467000895EF92FF920F9354
:100180001F93CF93DF93182FEB010E948A000EC0BC
:1001900001E0010F812F0E948E007E018FEFE81A8F
:1001A000F80A88810E94AD00102FE7018881811133
:1001B000EFCFDF91CF911F910F91FF90EF900895B6
:1001C000CF93C82F8A3019F48DE00E94E00080910F
:1001D000C00085FFFCCFC093C60080E090E0CF91C7
:1001E0000895EAE7F0E08081806E8083089582348C
:1001F00061F018F4813431F00895833449F0843487
:1002000051F0089561B942B9089564B945B90895A6
:1002100067B948B908956AB94BB9089570E09B0170
:1002200002C0359527958A95E2F7C9018170089536
:1002300021E030E0A90102C0440F551F8A95E2F782
:10024000CA01862B089521E030E002C0220F331F3F
:100250008A95E2F7822F80958623089521E030E089
:10026000A90102C0440F551F8A95E2F7CA018627EB
:100270000895CF92DF92EF92FF926B017C01609123
:100280007701709178018091790190917A01A701AD
:1002900096010E942203882309F458C020E030E030
:1002A000A901C701B6010E942203811106C0E1E93C
:1002B000F0E080818870808305C0E1E9F0E0808112
:1002C0008360808328E539E344E75FE3C701B60133
:1002D0000E94220388233CF48FEF9FEF90939900B4
:1002E0008093980027C020E034E244EF56E4C70131
:1002F000B6010E94440418162CF410929900109232
:10030000980018C020E030E040E053E4C701B60197
:100310000E9449049B01AC0160E074E284EF9AE41E
:100320000E9427030E9499036150710970939900FC
:10033000609398001092950010929400C0927701FB
:10034000D0927801E0927901F0927A01FF90EF90DB
:10035000DF90CF90089580E4809390008BE08093AD
:10036000910060E070E0CB010E9439010895109285
:1003700090001092910008958BE0809381008DE7AA
:1003800090E0909389008093880082E080936F00D2
:1003900010928500109284008091490190914A0149
:1003A000A0914B01B0914C01809370019093710129
:1003B000A0937201B09373018FB780688FBF0895C7
:1003C00010928100089581E08093740108951F9236
:1003D0000F920FB60F9211240BB60F922F933F93EB
:1003E0004F935F936F937F938F939F93AF93BF933D
:1003F000EF93FF938091700190917101A091720130
:10040000B09173010197A109B10980937001909394
:100410007101A0937201B0937301892B8A2B8B2BEE
:1004200091F40E94E3018091490190914A01A091C9
:100430004B01B0914C018093700190937101A09396
:100440007201B0937301FF91EF91BF91AF919F91B2
:100450008F917F916F915F914F913F912F910F906D
:100460000BBE0F900FBE0F901F901895609349011F
:1004700070934A0180934B0190934C0160937001FB
:1004800070937101809372019093730108958617A0
:1004900008F4682F862F0895681708F4682F862FB0
:1004A000089582309105A1F028F4009749F0019752
:1004B00051F01DC08330910581F0049799F017C069
:1004C00081E090E008956623A9F082E090E008952D
:1004D000662399F083E090E00895662389F083E035
:1004E00090E00895662379F082E090E0089580E03E
:1004F00090E0089581E090E0089584E090E0089510
:1005000084E090E0089581E090E008950E940E015B
:1005100091E0811190E0892F089560B180E00E9400
:100520008602682F80917501909176010E94510298
:1005300090937601809375018230910541F460912A
:100540006F0180E00E94180180936F010895039766
:10055000029738F460916F0180E00E94230180933C
:100560006F01089580917B0190917C01009719F0B3
:10057000019771F018C080916F018823A1F081E08C
:1005800090E090937C0180937B0110926E010BC0F0
:1005900090916E0180910001981728F010927C01D3
:1005A00010927B0115B880917B0190917C0100979E
:1005B00019F0019739F0089560E070E0CB010E94D6
:1005C00039010895E0916E01F0E0EF5FFE4FE081A8
:1005D000F0E0EE0FFF1FEE0FFF1FE75DFE4F6081A3
:1005E0007181828193810E94390180916E018F5FB8
:1005F00080936E0185B908950E948D020E94B20217
:1006000008954FEF60E081E40E94F70040E06FEF53
:1006100082E40E94F7000E94AB016DE770E080E089
:1006200090E00E9436020E94BC0110927C01109260
:100630007B010E94FC02809174018823E1F31092F7
:100640007401F7CF0E94CF0308F481E008950E945F
:100650003B030C940A040E94030458F00E94FC031C
:1006600040F029F45F3F29F00C94F30351110C94EE
:100670003E040C94F9030E941B0468F39923B1F320
:10068000552391F3951B550BBB27AA2762177307B8
:10069000840738F09F5F5F4F220F331F441FAA1F4C
:1006A000A9F335D00E2E3AF0E0E832D09150504008
:1006B000E695001CCAF72BD0FE2F29D0660F771FB6
:1006C000881FBB1F261737074807AB07B0E809F09C
:1006D000BB0B802DBF01FF2793585F4F3AF09E3F21
:1006E000510578F00C94F3030C943E045F3FE4F35F
:1006F000983ED4F3869577956795B795F7959F5F64
:10070000C9F7880F911D9695879597F90895E1E0AF
:10071000660F771F881FBB1F621773078407BA070E
:1007200020F0621B730B840BBA0BEE1F88F7E09569
:1007300008950E94A0036894B1110C943E0408959A
:100740000E94230488F09F5798F0B92F9927B7513A
:10075000B0F0E1F0660F771F881F991F1AF0BA9565
:10076000C9F714C0B13091F00E943D04B1E0089582
:100770000C943D04672F782F8827B85F39F0B93F74
:10078000CCF3869577956795B395D9F73EF4909518
:100790008095709561957F4F8F4F9F4F0895990F6A
:1007A0000008550FAA0BE0E8FEEF16161706E8073B
:1007B000F907C0F012161306E407F50798F0621B5C
:1007C000730B840B950B39F40A2661F0232B242B31
:1007D000252B21F408950A2609F4A140A6958FEF50
:1007E000811D811D089597F99F6780E870E060E0A2
:1007F00008959FEF80EC089500240A9416161706BA
:1008000018060906089500240A9412161306140601
:1008100005060895092E0394000C11F4882352F064
:10082000BB0F40F4BF2B11F460FF04C06F5F7F4F1C
:100830008F4F9F4F089557FD9058440F551F59F003
:100840005F3F71F04795880F97FB991F61F09F3FBD
:1008500079F087950895121613061406551FF2CFE6
:100860004695F1DF08C0161617061806991FF1CF36
:1008700086957105610508940895E894BB2766275D
:100880007727CB0197F908950E94CF0308F48FEFE3
:1008900008950E945C040C940A040E94FC0338F042
:1008A0000E94030420F0952311F00C94F3030C94A0
:1008B000F90311240C943E040E941B0470F3959FCD
:1008C000C1F3950F50E0551F629FF001729FBB2747
:1008D000F00DB11D639FAA27F00DB11DAA1F649FE3
:1008E0006627B00DA11D661F829F2227B00DA11D96
:1008F000621F739FB00DA11D621F839FA00D611D1C
:10090000221F749F3327A00D611D231F849F600D3C
:10091000211D822F762F6A2F11249F5750409AF065
:10092000F1F088234AF0EE0FFF1FBB1F661F771FF1
:10093000881F91505040A9F79E3F510580F00C94BC
:10094000F3030C943E045F3FE4F3983ED4F38695A2
:1009500077956795B795F795E7959F5FC1F7FE2B5C
:10096000880F911D9695879597F90895F894FFCF74
:100970002801020304050607070203040501020318
:100980000500010203010004070103050604020338
:10099000010101010101020202A4D082437BD49231
:1009A00043A4D0A443719DAE439A19C4430000DC14
:1009B00043A4F0F64300D002440100000000000010
:1009C0000200000000E0000000000000000000073E
:0E09D00006050403020100070800FFFF0000F7
:00000001FF
