:100000000C9446000C9465000C9465000C946500FB
:100010000C9465000C9465000C9465000C946500CC
:100020000C9465000C9465000C9465000C946500BC
:100030000C9465000C94E5000C9465000C9465002C
:100040000C9465000C9465000C9465000C9465009C
:100050000C9465000C9465000C9465000C9465008C
:100060000C9465000C9465000C9465000C9465007C
:100070000C9465000C9465000C9465000C9465006C
:100080000C9465000C9465000C94650011241FBE4F
:10009000CFEFD0E4DEBFCDBF11E0A0E0B1E0ECECEB
:1000A000F3E000E00BBF02C007900D92AC31B10746
:1000B000D9F721E0ACE1B1E001C01D92A332B20753
:1000C000E1F70E94C5010C94E4010C940000CF9369
:1000D000C82F8A3019F48DE00E9467008091C0001B
:1000E00085FFFCCFC093C60080E090E0CF910895DB
:1000F000823461F018F4813431F00895833449F08A
:10010000843451F0089561B942B9089564B945B98C
:10011000089567B948B908956AB94BB9089570E070
:100120009B0102C0359527958A95E2F7C901817038
:10013000089521E030E0A90102C0440F551F8A95BF
:10014000E2F7CA01862B089521E030E002C0220FB9
:10015000331F8A95E2F7822F80958623089521E048
:1001600030E0A90102C0440F551F8A95E2F7CA0189
:10017000862708958BE0809381008DE790E090932F
:1001800089008093880082E080936F001092850040
:10019000109284008091050190910601A0910701C1
:1001A000B091080180931C0190931D01A0931E0142
:1001B000B0931F018FB780688FBF089510928100A0
:1001C000089581E08093200108951F920F920FB649
:1001D0000F9211240BB60F922F933F934F935F937F
:1001E0006F937F938F939F93AF93BF93EF93FF93FF
:1001F00080911C0190911D01A0911E01B0911F01E1
:100200000197A109B10980931C0190931D01A0934E
:100210001E01B0931F01892B8A2B8B2B91F40E9416
:10022000E1008091050190910601A0910701B09134
:10023000080180931C0190931D01A0931E01B093AF
:100240001F01FF91EF91BF91AF919F918F917F918E
:100250006F915F914F913F912F910F900BBE0F9037
:100260000FBE0F901F9018956093050170930601C3
:10027000809307019093080160931C0170931D0106
:1002800080931E0190931F010895861708F4682F2C
:10029000862F0895681708F4682F862F089560B197
:1002A00080E00E948F0091E0811190E0892F0895F5
:1002B00080912101909122018230910549F128F429
:1002C000009751F0019779F058C08330910591F172
:1002D000049709F441C051C081E090E0909322015D
:1002E000809321014AC00E944F01882339F082E0A7
:1002F00090E090932201809321013FC08091000102
:100300008F5F809300018430C0F11092000135C0EE
:100310000E944F01882339F082E090E090932201FF
:10032000809321012AC083E090E090932201809382
:10033000210123C00E944F01882339F084E090E01E
:10034000909322018093210118C083E090E0909364
:1003500022018093210111C00E944F01882339F0AE
:1003600084E090E0909322018093210106C081E017
:1003700090E09093220180932101E0910001F0E050
:10038000EF5FFE4F808185B908954FEF60E081E413
:100390000E94780040E06FEF82E40E9478001092A3
:1003A0002201109221016CE271E080E090E00E9455
:1003B00034010E94BA000E945801809120018823D4
:0C03C000E1F310922001F7CFF894FFCF7A
:1003CC00FF01020402010000000000000200000016
:0C03DC000067000000000000FFFF0000B0
:00000001FF
