:100000000C944F000C946E000C946E000C946E00D7
:100010000C946E000C946E000C946E000C946E00A8
:100020000C946E000C946E000C946E000C946E0098
:100030000C946E000C94EE000C946E000C946E0008
:100040000C946E000C946E000C946E000C946E0078
:100050000C946E000C946E000C946E000C946E0068
:100060000C946E000C946E000C946E000C946E0058
:100070000C946E000C946E000C946E000C946E0048
:100080000C946E000C946E000C946E006D0159027D
:100090007801A201CC01F6012002320244021124AF
:1000A0001FBECFEFD0E4DEBFCDBF11E0A0E0B1E0D6
:1000B000E6E4F5E000E00BBF02C007900D92A83126
:1000C000B107D9F721E0A8E1B1E001C01D92A23249
:1000D000B207E1F70E9479020C94A1020C9400008F
:1000E000CF93C82F8A3019F48DE00E947000809160
:1000F000C00085FFFCCFC093C60080E090E0CF91A8
:100100000895823461F018F4813431F00895833415
:1001100049F0843451F0089561B942B9089564B941
:1001200045B9089567B948B908956AB94BB90895B2
:1001300070E09B0102C0359527958A95E2F7C901C9
:100140008170089521E030E0A90102C0440F551FDD
:100150008A95E2F7CA01862B089521E030E002C0BB
:10016000220F331F8A95E2F7822F80958623089508
:1001700021E030E0A90102C0440F551F8A95E2F743
:10018000CA01862708958BE0809381008DE790E077
:10019000909389008093880082E080936F00109292
:1001A0008500109284008091020190910301A0913A
:1001B0000401B09105018093180190931901A09357
:1001C0001A01B0931B018FB780688FBF08951092FA
:1001D0008100089581E080931C0108951F920F9281
:1001E0000FB60F9211240BB60F922F933F934F939C
:1001F0005F936F937F938F939F93AF93BF93EF938F
:10020000FF938091180190911901A0911A01B0916A
:100210001B010197A109B10980931801909319015D
:10022000A0931A01B0931B01892B8A2B8B2B91F47D
:100230000E94EA008091020190910301A0910401C3
:10024000B09105018093180190931901A0931A01B0
:10025000B0931B01FF91EF91BF91AF919F918F914F
:100260007F916F915F914F913F912F910F900BBEB6
:100270000F900FBE0F901F9018956093020170931E
:10028000030180930401909305016093180170931A
:10029000190180931A0190931B010895861708F4A1
:1002A000682F862F0895681708F4682F862F089501
:1002B00060B180E00E94980091E0811190E0892F68
:1002C0000895E0911E01F0911F01E930F10508F059
:1002D000F0C0EA5BFF4F0C94980282E090E09093AC
:1002E0001F0180931E011092210110922001E1C094
:1002F0000E945801882339F086E090E090931F0116
:1003000080931E0115C02091200130912101809120
:100310000001909101018217930750F4109221017E
:100320001092200183E090E090931F0180931E01C2
:100330008091200190912101019690932101809359
:100340002001B7C00E945801882339F086E090E070
:1003500090931F0180931E0115C0209120013091C0
:10036000210180910001909101018217930750F4BF
:10037000109221011092200184E090E090931F01DF
:1003800080931E018091200190912101019690930C
:100390002101809320018DC00E945801882339F0EB
:1003A00086E090E090931F0180931E0115C020917C
:1003B000200130912101809100019091010182176B
:1003C000930750F4109221011092200185E090E0F3
:1003D00090931F0180931E01809120019091210133
:1003E0000196909321018093200163C00E945801DF
:1003F000882339F086E090E090931F0180931E01DE
:1004000015C020912001309121018091000190912F
:1004100001018217930750F41092210110922001DC
:1004200082E090E090931F0180931E018091200153
:10043000909121010196909321018093200139C070
:100440000E945801882339F086E090E090931F01C4
:1004500080931E012EC087E090E090931F0180934F
:100460001E0127C00E945801882339F088E090E0DF
:1004700090931F0180931E011CC087E090E0909331
:100480001F0180931E0115C00E945801882339F076
:1004900088E090E090931F0180931E010AC082E0E3
:1004A00090E090931F0180931E0110922101109201
:1004B000200180911E0190911F018330910571F000
:1004C00018F4029739F011C08430910559F005975E
:1004D00029F00BC081E080931D0107C082E080936A
:1004E0001D0103C084E080931D0180911D0185B929
:1004F00008954FEF60E081E40E94810040E06FEFDB
:1005000082E40E94810010921F0110921E0161E09E
:1005100070E080E090E00E943D010E94C300809165
:100520001C018823E1F310921C010E946101F7CFA6
:10053000EE0FFF1F0024001C0BBE0790F691E02D6C
:060540000994F894FFCFBE
:100546002C01010000000000000200000000700005
:080556000000000000FFFF009F
:00000001FF
