:100000000C944E000C946D000C946D000C946D00DB
:100010000C946D000C946D000C946D000C946D00AC
:100020000C946D000C946D000C946D000C946D009C
:100030000C946D000C94ED000C946D000C946D000C
:100040000C946D000C946D000C946D000C946D007C
:100050000C946D000C946D000C946D000C946D006C
:100060000C946D000C946D000C946D000C946D005C
:100070000C946D000C946D000C946D000C946D004C
:100080000C946D000C946D000C946D006C01E001FB
:10009000730185019701A901BB01CD0111241FBE88
:1000A000CFEFD0E4DEBFCDBF11E0A0E0B1E0EAE4E5
:1000B000F4E000E00BBF02C007900D92A631B1073B
:1000C000D9F721E0A6E1B1E001C01D92A032B2074C
:1000D000E1F70E94FB010C9423020C940000CF93E3
:1000E000C82F8A3019F48DE00E946F008091C00003
:1000F00085FFFCCFC093C60080E090E0CF910895CB
:10010000823461F018F4813431F00895833449F079
:10011000843451F0089561B942B9089564B945B97C
:10012000089567B948B908956AB94BB9089570E060
:100130009B0102C0359527958A95E2F7C901817028
:10014000089521E030E0A90102C0440F551F8A95AF
:10015000E2F7CA01862B089521E030E002C0220FA9
:10016000331F8A95E2F7822F80958623089521E038
:1001700030E0A90102C0440F551F8A95E2F7CA0179
:10018000862708958BE0809381008DE790E090931F
:1001900089008093880082E080936F001092850030
:1001A000109284008091000190910101A0910201C0
:1001B000B09103018093160190931701A093180149
:1001C000B09319018FB780688FBF08951092810096
:1001D000089581E080931A0108951F920F920FB63F
:1001E0000F9211240BB60F922F933F934F935F936F
:1001F0006F937F938F939F93AF93BF93EF93FF93EF
:100200008091160190911701A0911801B0911901E8
:100210000197A109B1098093160190931701A0934A
:100220001801B0931901892B8A2B8B2B91F40E9412
:10023000E9008091000190910101A0910201B0912B
:1002400003018093160190931701A0931801B093B6
:100250001901FF91EF91BF91AF919F918F917F9184
:100260006F915F914F913F912F910F900BBE0F9027
:100270000FBE0F901F9018956093000170930101BD
:10028000809302019093030160931601709317010C
:1002900080931801909319010895861708F4682F28
:1002A000862F0895681708F4682F862F089560B187
:1002B00080E00E94970091E0811190E0892F0895DD
:1002C000E0911E01F0911F01E830F10508F078C0BF
:1002D000EA5BFF4F0C941A0282E090E090931F01BA
:1002E00080931E016DC00E945701882339F085E07C
:1002F00090E090931F0180931E0162C083E090E024
:1003000090931F0180931E015BC00E9457018823B8
:1003100039F085E090E090931F0180931E0150C05A
:1003200084E090E090931F0180931E0149C00E94D9
:100330005701882339F085E090E090931F01809366
:100340001E013EC082E090E090931F0180931E0149
:1003500037C00E945701882339F085E090E09093E0
:100360001F0180931E012CC086E090E090931F0136
:1003700080931E0125C00E945701882339F087E031
:1003800090E090931F0180931E011AC086E090E0D8
:1003900090931F0180931E0113C00E945701882370
:1003A00039F087E090E090931F0180931E0108C010
:1003B00080911B0190911C0190931F0180931E015D
:1003C00080911E0190911F018330910549F0843086
:1003D000910551F0029759F481E080931D0107C007
:1003E00082E080931D0103C084E080931D01809111
:1003F0001D0185B908954FEF60E081E40E948000FF
:1004000040E06FEF82E40E94800010921F01109282
:100410001E016CE271E080E090E00E943C010E94CD
:10042000C2000E94600180911A018823E1F31092BA
:100430001A01F7CFEE0FFF1F0024001C0BBE079020
:0A044000F691E02D0994F894FFCF27
:10044A000100000000000002000000006F00000030
:06045A00000000FFFF009E
:00000001FF
