:100000000C9446000C9465000C9465000C946500FB
:100010000C9465000C9465000C9465000C946500CC
:100020000C9465000C9465000C9465000C946500BC
:100030000C9465000C94E5000C9465000C9465002C
:100040000C9465000C9465000C9465000C9465009C
:100050000C9465000C9465000C9465000C9465008C
:100060000C9465000C9465000C9465000C9465007C
:100070000C9465000C9465000C9465000C9465006C
:100080000C9465000C9465000C94650011241FBE4F
:10009000CFEFD0E4DEBFCDBF11E0A0E0B1E0EEE4F1
:1000A000F3E000E00BBF02C007900D92A631B1074C
:1000B000D9F721E0A6E1B1E001C01D92AE31B2074F
:1000C000E1F70E948B010C94A5010C940000CF93E2
:1000D000C82F8A3019F48DE00E9467008091C0001B
:1000E00085FFFCCFC093C60080E090E0CF910895DB
:1000F000823461F018F4813431F00895833449F08A
:10010000843451F0089561B942B9089564B945B98C
:10011000089567B948B908956AB94BB9089570E070
:100120009B0102C0359527958A95E2F7C901817038
:10013000089521E030E0A90102C0440F551F8A95BF
:10014000E2F7CA01862B089521E030E002C0220FB9
:10015000331F8A95E2F7822F80958623089521E048
:1001600030E0A90102C0440F551F8A95E2F7CA0189
:10017000862708958BE0809381008DE790E090932F
:1001800089008093880082E080936F001092850040
:10019000109284008091000190910101A0910201D0
:1001A000B09103018093160190931701A093180159
:1001B000B09319018FB780688FBF089510928100A6
:1001C000089581E080931A0108951F920F920FB64F
:1001D0000F9211240BB60F922F933F934F935F937F
:1001E0006F937F938F939F93AF93BF93EF93FF93FF
:1001F0008091160190911701A0911801B0911901F9
:100200000197A109B1098093160190931701A0935A
:100210001801B0931901892B8A2B8B2B91F40E9422
:10022000E1008091000190910101A0910201B09143
:1002300003018093160190931701A0931801B093C6
:100240001901FF91EF91BF91AF919F918F917F9194
:100250006F915F914F913F912F910F900BBE0F9037
:100260000FBE0F901F9018956093000170930101CD
:10027000809302019093030160931601709317011C
:1002800080931801909319010895861708F4682F38
:10029000862F0895681708F4682F862F0895809197
:1002A0001C0190911D018130910559F018F00297C1
:1002B00079F014C081E090E090931D0180931C01BF
:1002C0000DC082E090E090931D0180931C0106C058
:1002D00082E090E090931D0180931C0180911C01AD
:1002E00090911D018130910519F0029729F00FC0FE
:1002F00081E080931B010BC080911B01843020F0B2
:1003000081E080931B0103C0880F80931B018091C3
:100310001B0185B9089540E06FEF82E40E947800E8
:1003200010921D0110921C0164E670E080E090E0E4
:100330000E9434010E94BA0080911A018823E1F3DF
:0E03400010921A010E944F01F7CFF894FFCFE0
:10034E000100000000000002000000006700000035
:06035E00000000FFFF009B
:00000001FF
