:100000000C9446000C9465000C9465000C946500FB
:100010000C9465000C9465000C9465000C946500CC
:100020000C9465000C9465000C9465000C946500BC
:100030000C9465000C94E5000C9465000C9465002C
:100040000C9465000C9465000C9465000C9465009C
:100050000C9465000C9465000C9465000C9465008C
:100060000C9465000C9465000C9465000C9465007C
:100070000C9465000C9465000C9465000C9465006C
:100080000C9465000C9465000C94650011241FBE4F
:10009000CFEFD0E4DEBFCDBF11E0A0E0B1E0E0EDF6
:1000A000F3E000E00BBF02C007900D92AA31B10748
:1000B000D9F721E0AAE1B1E001C01D92A232B20756
:1000C000E1F70E94C7010C94E6010C940000CF9365
:1000D000C82F8A3019F48DE00E9467008091C0001B
:1000E00085FFFCCFC093C60080E090E0CF910895DB
:1000F000823461F018F4813431F00895833449F08A
:10010000843451F0089561B942B9089564B945B98C
:10011000089567B948B908956AB94BB9089570E070
:100120009B0102C0359527958A95E2F7C901817038
:10013000089521E030E0A90102C0440F551F8A95BF
:10014000E2F7CA01862B089521E030E002C0220FB9
:10015000331F8A95E2F7822F80958623089521E048
:1001600030E0A90102C0440F551F8A95E2F7CA0189
:10017000862708958BE0809381008DE790E090932F
:1001800089008093880082E080936F001092850040
:10019000109284008091040190910501A0910601C4
:1001A000B091070180931A0190931B01A0931C0149
:1001B000B0931D018FB780688FBF089510928100A2
:1001C000089581E080931E0108951F920F920FB64B
:1001D0000F9211240BB60F922F933F934F935F937F
:1001E0006F937F938F939F93AF93BF93EF93FF93FF
:1001F00080911A0190911B01A0911C01B0911D01E9
:100200000197A109B10980931A0190931B01A09352
:100210001C01B0931D01892B8A2B8B2B91F40E941A
:10022000E1008091040190910501A0910601B09137
:10023000070180931A0190931B01A0931C01B093B6
:100240001D01FF91EF91BF91AF919F918F917F9190
:100250006F915F914F913F912F910F900BBE0F9037
:100260000FBE0F901F9018956093040170930501C5
:10027000809306019093070160931A0170931B010C
:1002800080931C0190931D010895861708F4682F30
:10029000862F0895681708F4682F862F089560B197
:1002A00080E00E948F0091E0811190E0892F0895F5
:1002B00080911F01909120018230910559F128F41D
:1002C000009751F0019789F05AC083309105A1F150
:1002D000049709F443C053C01092210181E090E0DB
:1002E0009093200180931F014AC00E944F018823F0
:1002F00039F082E090E09093200180931F013FC08D
:10030000809121018F5F809321018430C0F1109290
:10031000210135C00E944F01882339F082E090E02E
:100320009093200180931F012AC083E090E0909376
:10033000200180931F0123C00E944F01882339F0C0
:1003400084E090E09093200180931F0118C083E027
:1003500090E09093200180931F0111C00E944F01F3
:10036000882339F084E090E09093200180931F016E
:1003700006C081E090E09093200180931F01E091FE
:100380002101F0E0E050FF4F808185B908954FEFE3
:1003900060E081E40E94780040E06FEF82E40E9418
:1003A00078001092200110921F016CE271E080E051
:1003B00090E00E9434010E94BA000E94580180918E
:1003C0001E018823E1F310921E01F7CFF894FFCFAE
:1003D0000102040201000000000000020000000011
:0A03E00067000000000000FFFF00AE
:00000001FF
