:100000000C9446000C9465000C9465000C946500FB
:100010000C9465000C9465000C9465000C946500CC
:100020000C9465000C9465000C9465000C946500BC
:100030000C9465000C945E010C9465000C946500B2
:100040000C9465000C9465000C9465000C9465009C
:100050000C9465000C9465000C9465000C9465008C
:100060000C9465000C9465000C9465000C9465007C
:100070000C9465000C9465000C9465000C9465006C
:100080000C9465000C9465000C94650011241FBE4F
:10009000CFEFD0E4DEBFCDBF11E0A0E0B1E0E4E3FC
:1000A000F6E000E00BBF02C007900D92A631B10749
:1000B000D9F721E0A6E1B1E001C01D92A132B2075B
:1000C000E1F70E94ED020C9418030C94000040E04C
:1000D00050E00CC000002F5F3F4F02C020E030E036
:1000E000273063E03607B4F34F5F5F4F4817590777
:1000F000ACF308959BB19F7B9BB988B98BB18068A5
:100100008BB900008BB18F778BB982E090E00E94B1
:100110006700089581E00E947A000895813120F4FB
:1001200081580E947A00089581550E947A000895AE
:1001300084E690E00E94670088E30E947A0086E0EF
:100140000E947A008FE00E947A0081E00E947A008B
:100150008AE090E00E94670008959BB190649BB98B
:1001600088B98BB180688BB900008BB18F778BB960
:1001700081E090E00E9467000895EF92FF920F9354
:100180001F93CF93DF93182FEB010E948A000EC0BC
:1001900001E0010F812F0E948E007E018FEFE81A8F
:1001A000F80A88810E94AD00102FE7018881811133
:1001B000EFCFDF91CF911F910F91FF90EF900895B6
:1001C000CF93C82F8A3019F48DE00E94E00080910F
:1001D000C00085FFFCCFC093C60080E090E0CF91C7
:1001E0000895823461F018F4813431F00895833435
:1001F00049F0843451F0089561B942B9089564B961
:1002000045B9089567B948B908956AB94BB90895D1
:1002100070E09B0102C0359527958A95E2F7C901E8
:100220008170089521E030E0A90102C0440F551FFC
:100230008A95E2F7CA01862B089521E030E002C0DA
:10024000220F331F8A95E2F7822F80958623089527
:1002500021E030E0A90102C0440F551F8A95E2F762
:10026000CA01862708958BE0809381008DE790E096
:10027000909389008093880082E080936F001092B1
:100280008500109284008091000190910101A0915D
:100290000201B09103018093160190931701A0937E
:1002A0001801B09319018FB780688FBF089510921D
:1002B0008100089581E080931A0108951F920F92A2
:1002C0000FB60F9211240BB60F922F933F934F93BB
:1002D0005F936F937F938F939F93AF93BF93EF93AE
:1002E000FF938091160190911701A0911801B09190
:1002F00019010197A109B109809316019093170183
:10030000A0931801B0931901892B8A2B8B2B91F4A0
:100310000E945A018091000190910101A091020177
:10032000B09103018093160190931701A0931801D7
:10033000B0931901FF91EF91BF91AF919F918F9170
:100340007F916F915F914F913F912F910F900BBED5
:100350000F900FBE0F901F9018956093000170933F
:100360000101809302019093030160931601709341
:10037000170180931801909319010895861708F4C6
:10038000682F862F0895681708F4682F862F089520
:10039000CF9360B180E00E940801C1E08111C0E00C
:1003A000C0931B0160B181E00E94080121E081112E
:1003B00020E02093200180911C0190911D0182304A
:1003C000910509F45CC028F4009759F00197A9F051
:1003D000F7C08330910509F49BC0049709F4DFC08E
:1003E000EFC087E080931F0110921E0181E090E032
:1003F00090931D0180931C01E3C0C11109C021111C
:1004000007C081E090E090931D0180931C01D8C04B
:10041000C11112C0222381F080911F01882319F09D
:10042000815080931F0110921E0183E090E0909311
:100430001D0180931C01C4C0CC2391F0211110C078
:1004400080911F01893018F48F5F80931F011092F3
:100450001E0182E090E090931D0180931C01B0C0CA
:10046000CC2309F4ADC0222309F4AAC010921F01C5
:1004700084E090E090931D0180931C01A1C0C11104
:1004800009C0211107C081E090E090931D01809385
:100490001C0196C0C11112C0222381F080911F015E
:1004A000882319F0815080931F0110921E0183E070
:1004B00090E090931D0180931C0182C0CC23C9F071
:1004C000211117C080911E018F5F80931E018B3018
:1004D00048F080911F01893028F48F5F80931F01BD
:1004E00010921E0182E090E090931D0180931C0108
:1004F00067C0CC2309F464C0222309F461C01092C0
:100500001F0184E090E090931D0180931C0158C06E
:10051000C11109C0211107C081E090E090931D0135
:1005200080931C014DC0C11119C02223B9F08091E4
:100530001E018F5F80931E018B3048F080911F0158
:10054000882329F0815080931F0110921E0183E0BF
:1005500090E090931D0180931C0132C0CC2391F058
:10056000211110C080911F01893018F48F5F809392
:100570001F0110921E0182E090E090931D01809374
:100580001C011EC0CC23E1F02223D1F010921F01E8
:1005900084E090E090931D0180931C0111C0CC2356
:1005A00049F0222339F084E090E090931D0180937C
:1005B0001C0106C081E090E090931D0180931C0116
:1005C00080911F0185B90E948A0080911F0190E0EF
:1005D000C0960E94AD00CF9108954FEF60E081E496
:1005E0000E94F10040E06FEF82E40E94F10040E0E1
:1005F0006FEF83E40E94F10040E06FEF84E40E941B
:10060000F10010921D0110921C0164E670E080E080
:1006100090E00E94AD010E9433010E9498000E9468
:10062000C80180911A018823E1F310921A01F7CFD3
:04063000F894FFCF6C
:10063400010000000000000200000000E0000000D3
:06064400000000FFFF00B2
:00000001FF
