:100000000C9446000C9465000C9465000C946500FB
:100010000C9465000C9465000C9465000C946500CC
:100020000C9465000C9465000C9465000C946500BC
:100030000C9465000C945E010C9465000C946500B2
:100040000C9465000C9465000C9465000C9465009C
:100050000C9465000C9465000C9465000C9465008C
:100060000C9465000C9465000C9465000C9465007C
:100070000C9465000C9465000C9465000C9465006C
:100080000C9465000C9465000C94650011241FBE4F
:10009000CFEFD0E4DEBFCDBF11E0A0E0B1E0E2E6FB
:1000A000F5E000E00BBF02C007900D92A432B1074B
:1000B000D9F721E0A4E2B1E001C01D92AC32B20751
:1000C000E1F70E947F020C94AF020C94000040E024
:1000D00050E00CC000002F5F3F4F02C020E030E036
:1000E000273063E03607B4F34F5F5F4F4817590777
:1000F000ACF308959BB19F7B9BB988B98BB18068A5
:100100008BB900008BB18F778BB982E090E00E94B1
:100110006700089581E00E947A000895813120F4FB
:1001200081580E947A00089581550E947A000895AE
:1001300084E690E00E94670088E30E947A0086E0EF
:100140000E947A008FE00E947A0081E00E947A008B
:100150008AE090E00E94670008959BB190649BB98B
:1001600088B98BB180688BB900008BB18F778BB960
:1001700081E090E00E9467000895EF92FF920F9354
:100180001F93CF93DF93182FEB010E948A000EC0BC
:1001900001E0010F812F0E948E007E018FEFE81A8F
:1001A000F80A88810E94AD00102FE7018881811133
:1001B000EFCFDF91CF911F910F91FF90EF900895B6
:1001C000CF93C82F8A3019F48DE00E94E00080910F
:1001D000C00085FFFCCFC093C60080E090E0CF91C7
:1001E0000895823461F018F4813431F00895833435
:1001F00049F0843451F0089561B942B9089564B961
:1002000045B9089567B948B908956AB94BB90895D1
:1002100070E09B0102C0359527958A95E2F7C901E8
:100220008170089521E030E0A90102C0440F551FFC
:100230008A95E2F7CA01862B089521E030E002C0DA
:10024000220F331F8A95E2F7822F80958623089527
:1002500021E030E0A90102C0440F551F8A95E2F762
:10026000CA01862708958BE0809381008DE790E096
:10027000909389008093880082E080936F001092B1
:100280008500109284008091060190910701A09151
:100290000801B09109018093240190932501A09356
:1002A0002601B09327018FB780688FBF0895109201
:1002B0008100089581E08093280108951F920F9294
:1002C0000FB60F9211240BB60F922F933F934F93BB
:1002D0005F936F937F938F939F93AF93BF93EF93AE
:1002E000FF938091240190912501A0912601B09166
:1002F00027010197A109B109809324019093250159
:10030000A0932601B0932701892B8A2B8B2B91F484
:100310000E945A018091060190910701A091080165
:10032000B09109018093240190932501A0932601A7
:10033000B0932701FF91EF91BF91AF919F918F9162
:100340007F916F915F914F913F912F910F900BBED5
:100350000F900FBE0F901F90189560930601709339
:100360000701809308019093090160932401709321
:10037000250180932601909327010895861708F49C
:10038000682F862F0895681708F4682F862F089520
:1003900060B180E00E94080191E0811190E0892F16
:1003A00008950E94C8012091290130912A0122302C
:1003B000310509F45BC038F42115310569F02130AD
:1003C000310599F094C02330310509F45FC0243021
:1003D000310509F46BC08BC010922B0181E090E0D5
:1003E00090932A018093290182C0811103C091E07A
:1003F0009093010190910101992369F1882359F1AA
:10040000E0912B01F0E0EE5FFE4F8081823031F40D
:10041000809100018F5F8093000107C080910001EF
:10042000882319F08150809300010E948A008091F6
:100430000001893030F06CE171E081E00E94BD0084
:1004400003C0805D0E94AD0082E090E090932A019D
:10045000809329014CC080912B018F5F80932B01E9
:10046000843008F444C010922B0141C0882339F035
:1004700083E090E090932A018093290138C084E0C2
:1004800090E090932A018093290131C0882339F0AC
:1004900083E090E090932A018093290128C084E0B2
:1004A00090E090932A018093290121C08823C9F00C
:1004B00010922B011092010181E090E090932A01AB
:1004C0008093290180910001893088F085E0809334
:1004D00000010E948A0080910001805D0E94AD00B1
:1004E00006C084E090E090932A0180932901E09176
:1004F0002B01F0E0EE5FFE4F808185B908954FEF4C
:1005000060E081E40E94F10040E06FEF82E40E942D
:10051000F10040E06FEF83E40E94F10040E06FEFF4
:1005200084E40E94F10010922A01109229016CE2E9
:1005300071E080E090E00E94AD010E9433010E94D2
:10054000980080910001805D0E94AD000E94D10161
:10055000809128018823E1F310922801F7CFF894C5
:02056000FFCFCB
:100562000501010204020100000000000002000077
:100572000000E0000000000000FFFF005669637405
:040582006F7279001B
:00000001FF
