:100000000C9446000C9465000C9465000C946500FB
:100010000C9465000C9465000C9465000C946500CC
:100020000C9465000C9465000C9465000C946500BC
:100030000C9465000C9464010C9465000C946500AC
:100040000C9465000C9465000C9465000C9465009C
:100050000C9465000C9465000C9465000C9465008C
:100060000C9465000C9465000C9465000C9465007C
:100070000C9465000C9465000C9465000C9465006C
:100080000C9465000C9465000C94650011241FBE4F
:10009000CFEFD0E4DEBFCDBF11E0A0E0B1E0E2EAF7
:1000A000F4E000E00BBF02C007900D92A831B10749
:1000B000D9F721E0A8E1B1E001C01D92A032B2075A
:1000C000E1F70E94FB010C944F020C94000040E009
:1000D00050E00CC000002F5F3F4F02C020E030E036
:1000E000273063E03607B4F34F5F5F4F4817590777
:1000F000ACF308959BB19F7B9BB988B98BB18068A5
:100100008BB900008BB18F778BB982E090E00E94B1
:100110006700089581E00E947A000895813120F4FB
:1001200081580E947A00089581550E947A000895AE
:1001300084E690E00E94670088E30E947A0086E0EF
:100140000E947A008FE00E947A0081E00E947A008B
:100150008AE090E00E94670008959BB190649BB98B
:1001600088B98BB180688BB900008BB18F778BB960
:1001700081E090E00E9467000895EF92FF920F9354
:100180001F93CF93DF93182FEB010E948A000EC0BC
:1001900001E0010F812F0E948E007E018FEFE81A8F
:1001A000F80A88810E94AD00102FE7018881811133
:1001B000EFCFDF91CF911F910F91FF90EF900895B6
:1001C000CF93C82F8A3019F48DE00E94E00080910F
:1001D000C00085FFFCCFC093C60080E090E0CF91C7
:1001E0000895EAE7F0E08081806E8083089582348C
:1001F00061F018F4813431F00895833449F0843487
:1002000051F0089561B942B9089564B945B90895A6
:1002100067B948B908956AB94BB9089570E09B0170
:1002200002C0359527958A95E2F7C9018170089536
:1002300021E030E0A90102C0440F551F8A95E2F782
:10024000CA01862B089521E030E002C0220F331F3F
:100250008A95E2F7822F80958623089521E030E089
:10026000A90102C0440F551F8A95E2F7CA018627EB
:1002700008958BE0809381008DE790E09093890052
:100280008093880082E080936F0010928500109226
:1002900084008091010190910201A0910301B0912D
:1002A00004018093190190931A01A0931B01B0934C
:1002B0001C018FB780688FBF089510928100089548
:1002C00081E080931D0108951F920F920FB60F9247
:1002D00011240BB60F922F933F934F935F936F931D
:1002E0007F938F939F93AF93BF93EF93FF938091EF
:1002F000190190911A01A0911B01B0911C01019765
:10030000A109B1098093190190931A01A0931B01CF
:10031000B0931C01892B8A2B8B2B91F40E946001D6
:100320008091010190910201A0910301B09104011B
:100330008093190190931A01A0931B01B0931C01A3
:10034000FF91EF91BF91AF919F918F917F916F91AD
:100350005F914F913F912F910F900BBE0F900FBE69
:100360000F901F9018956093010170930201809384
:100370000301909304016093190170931A01809313
:100380001B0190931C010895861708F4682F862F8F
:100390000895681708F4682F862F0895DC014091AE
:1003A00078005091790050931F0140931E011092E4
:1003B000180181E08093000109C09F5F90931801AC
:1003C00090910001990F9F5F909300019091180107
:1003D000292F30E02617370750F4220F331FFD0175
:1003E000E20FF31F208131812417350730F380910C
:1003F000000185B90895CF93DF93CDB7DEB760973D
:100400000FB6F894DEBF0FBECDBF4FEF60E081E4C2
:100410000E94F70040E06FEF82E40E94F70040E0A6
:100420006FEF84E40E94F7000E94F1006AE070E040
:1004300080E090E00E94B3010E94390180E390E0E7
:100440009A83898381E090E01AC0FC013197EE0F16
:10045000FF1F21E030E02C0F3D1FE20FF31F208132
:1004600031812E5E3F4FFC01EE0FFF1F41E050E057
:100470004C0F5D1FE40FF51F3183208301968830F8
:10048000910518F368E070E0CE0101960E94CE015C
:1004900080911D018823E1F310921D01F3CFF894A0
:0204A000FFCF8C
:1004A20001010000000000000200000000E0000066
:0804B20000000000FFFF000044
:00000001FF
