:100000000C9446000C9465000C9465000C946500FB
:100010000C9465000C9465000C9465000C946500CC
:100020000C9465000C9465000C9465000C946500BC
:100030000C9465000C9464010C9465000C946500AC
:100040000C9465000C9465000C9465000C9465009C
:100050000C9465000C9465000C9465000C9465008C
:100060000C9465000C9465000C9465000C9465007C
:100070000C9465000C9465000C9465000C9465006C
:100080000C9465000C9465000C94650011241FBE4F
:10009000CFEFD0E4DEBFCDBF11E0A0E0B1E0E0E003
:1000A000F4E000E00BBF02C007900D92A631B1074B
:1000B000D9F721E0A6E1B1E001C01D92AD31B20750
:1000C000E1F70E94DC010C94FE010C94000040E07A
:1000D00050E00CC000002F5F3F4F02C020E030E036
:1000E000273063E03607B4F34F5F5F4F4817590777
:1000F000ACF308959BB19F7B9BB988B98BB18068A5
:100100008BB900008BB18F778BB982E090E00E94B1
:100110006700089581E00E947A000895813120F4FB
:1001200081580E947A00089581550E947A000895AE
:1001300084E690E00E94670088E30E947A0086E0EF
:100140000E947A008FE00E947A0081E00E947A008B
:100150008AE090E00E94670008959BB190649BB98B
:1001600088B98BB180688BB900008BB18F778BB960
:1001700081E090E00E9467000895EF92FF920F9354
:100180001F93CF93DF93182FEB010E948A000EC0BC
:1001900001E0010F812F0E948E007E018FEFE81A8F
:1001A000F80A88810E94AD00102FE7018881811133
:1001B000EFCFDF91CF911F910F91FF90EF900895B6
:1001C000CF93C82F8A3019F48DE00E94E00080910F
:1001D000C00085FFFCCFC093C60080E090E0CF91C7
:1001E0000895EAE7F0E08081806E8083089582348C
:1001F00061F018F4813431F00895833449F0843487
:1002000051F0089561B942B9089564B945B90895A6
:1002100067B948B908956AB94BB9089570E09B0170
:1002200002C0359527958A95E2F7C9018170089536
:1002300021E030E0A90102C0440F551F8A95E2F782
:10024000CA01862B089521E030E002C0220F331F3F
:100250008A95E2F7822F80958623089521E030E089
:10026000A90102C0440F551F8A95E2F7CA018627EB
:1002700008958BE0809381008DE790E09093890052
:100280008093880082E080936F0010928500109226
:1002900084008091000190910101A0910201B09130
:1002A00003018093160190931701A0931801B09356
:1002B00019018FB780688FBF08951092810008954B
:1002C00081E080931A0108951F920F920FB60F924A
:1002D00011240BB60F922F933F934F935F936F931D
:1002E0007F938F939F93AF93BF93EF93FF938091EF
:1002F000160190911701A0911801B0911901019771
:10030000A109B1098093160190931701A0931801D8
:10031000B0931901892B8A2B8B2B91F40E946001D9
:100320008091000190910101A0910201B09103011F
:100330008093160190931701A0931801B0931901AF
:10034000FF91EF91BF91AF919F918F917F916F91AD
:100350005F914F913F912F910F900BBE0F900FBE69
:100360000F901F9018956093000170930101809386
:10037000020190930301609316017093170180931B
:100380001801909319010895861708F4682F862F95
:100390000895681708F4682F862F089580917800D3
:1003A0009091790090931C0180931B0185B98091F5
:1003B0001C0183708BB908954FEF60E081E40E94C7
:1003C000F70040E06FEF82E40E94F70040E06FEF3B
:1003D00084E40E94F7000E94F1006AE070E080E08F
:1003E00090E00E94B3010E9439010E94CE018091E9
:1003F0001A018823E1F310921A01F7CFF894FFCF86
:10040000010000000000000200000000E000000009
:06041000000000FFFF00E8
:00000001FF
