:100000000C9446000C9465000C9465000C946500FB
:100010000C9465000C9465000C9465000C946500CC
:100020000C9465000C9465000C9465000C946500BC
:100030000C9465000C942D010C9465000C946500E3
:100040000C9465000C9465000C9465000C9465009C
:100050000C9465000C9465000C9465000C9465008C
:100060000C9465000C9465000C9465000C9465007C
:100070000C9465000C9465000C9465000C9465006C
:100080000C9465000C9465000C94650011241FBE4F
:10009000CFEFD0E4DEBFCDBF11E0A0E0B1E0ECEFE8
:1000A000F7E000E00BBF02C007900D92A831B10746
:1000B000D9F721E0A8E1B1E001C01D92A832B20752
:1000C000E1F70E94AD020C94FC030C94000040E0A8
:1000D00050E00CC000002F5F3F4F02C020E030E036
:1000E000273063E03607B4F34F5F5F4F4817590777
:1000F000ACF308959BB19F7B9BB988B98BB18068A5
:100100008BB900008BB18F778BB982E090E00E94B1
:100110006700089581E00E947A000895813120F4FB
:1001200081580E947A00089581550E947A000895AE
:1001300084E690E00E94670088E30E947A0086E0EF
:100140000E947A008FE00E947A0081E00E947A008B
:100150008AE090E00E94670008959BB190649BB98B
:1001600088B98BB180688BB900008BB18F778BB960
:1001700081E090E00E9467000895EF92FF920F9354
:100180001F93CF93DF93182FEB010E948A000EC0BC
:1001900001E0010F812F0E948E007E018FEFE81A8F
:1001A000F80A88810E94AD00102FE7018881811133
:1001B000EFCFDF91CF911F910F91FF90EF900895B6
:1001C000CF93C82F8A3019F48DE00E94E00080910F
:1001D000C00085FFFCCFC093C60080E090E0CF91C7
:1001E0000895609300017093010180930201909340
:1001F0000301609318017093190180931A01909381
:100200001B0108958BE0809381008DE790E090932F
:1002100089008093880082E080936F0010928500AF
:10022000109284008091000190910101A09102013F
:10023000B09103018093180190931901A0931A01C2
:10024000B0931B018FB780688FBF08951092810013
:10025000089581E080931C0108951F920F920FB6BC
:100260000F9211240BB60F922F933F934F935F93EE
:100270006F937F938F939F93AF93BF93EF93FF936E
:100280008091180190911901A0911A01B0911B0160
:100290000197A109B1098093180190931901A093C6
:1002A0001A01B0931B01892B8A2B8B2B91F40E948E
:1002B00029018091000190910101A0910201B0916A
:1002C00003018093180190931901A0931A01B09330
:1002D0001B01FF91EF91BF91AF919F918F917F9102
:1002E0006F915F914F913F912F910F900BBE0F90A7
:1002F0000FBE0F901F901895CF92DF92EF92FF9252
:10030000CF93DF93EC016A017B01CA010E94DB02FB
:10031000998388839B838A831D821C82CE82DF829D
:10032000E886F986DF91CF91FF90EF90DF90CF9034
:1003300008950E9473030895FC012481358181E0B2
:10034000232B09F080E00895FC0166817781808588
:100350009185089599233CF49095809570956195C9
:100360007F4F8F4F9F4F08950F931F93CF93DF932E
:10037000FC0164817581AB014F5F5F4F2281338146
:1003800042175307C9F0EC01621B730B072E000CD8
:10039000880B990B0E94AA01DC01CB010196A11DDB
:1003A000B11D0E811F812885398580179107A2070D
:1003B000B30721F080E003C081E001C081E0DF915C
:1003C000CF911F910F9108951F93CF93DF93EC016D
:1003D000162F0E94B401811122C0CE010E949C01FF
:1003E000882341F0E881F981FB83EA83FD83EC8374
:1003F000108315C08C819D8101969D838C832881FB
:1004000039814E815F8168857985420F531F84173A
:10041000950710F03D832C83EC81FD811083DF91E3
:10042000CF911F910895CF93DF93EC010E949C011F
:1004300081111AC0EA81FB818191FB83EA832C81BF
:100440003D812E173F0710F41D821C8228813981BF
:100450004E815F8168857985420F531FE417F50748
:1004600020F03B832A8301C080E0DF91CF91089583
:10047000CF93DF9380911D0190911E01009719F099
:10048000019769F008C081E090E090931E0180938D
:100490001D0115B804C010921E0110921D0180911B
:1004A0001D0190911E01009719F0019719F00FC0DE
:1004B00015B80DC0C0912201D0912301CE010E9438
:1004C0009C01811104C0CE010E94130285B9DF9105
:1004D000CF910895CF93DF938091200190912101D6
:1004E000009719F0019771F009C081E090E09093B6
:1004F00021018093200110921F0104C0109221015C
:10050000109220018091200190912101009719F013
:10051000019721F01FC010921F011CC0C091220141
:10052000D0912301CE010E94B401811105C060B1B8
:100530006095CE010E94E401C0912201D091230177
:10054000CE010E94B401811105C060B16195CE0158
:100550000E94E401DF91CF91089511B88FEF82B925
:1005600084B915B864E670E080E090E00E94F10084
:100570000E94020110921E0110921D011092210191
:10058000109220018AE090E00E94DB029093230108
:100590008093220144E050E060E070E00E947C0122
:1005A0000E946A020E94380280911C018823E1F3B4
:1005B00010921C01F5CF0F931F93CF93DF938230DE
:1005C000910510F482E090E0E0912601F09127017E
:1005D00020E030E0A0E0B0E0309719F14081518197
:1005E0000281138148175907C8F08417950769F4E9
:1005F000109731F012960C93129713961C9327C004
:10060000009326011093270122C02115310519F00E
:100610004217530718F49A01BD01EF01DF01F801F9
:10062000DBCF21153105F9F0281B390B24303105BA
:1006300080F48A819B816115710521F0FB01938310
:10064000828304C09093270180932601FE01329695
:1006500044C0FE01E20FF31F8193919322503109B0
:10066000398328833AC02091240130912501232B1E
:1006700041F420911401309115013093250120930C
:10068000240120911201309113012115310541F40B
:100690002DB73EB74091160150911701241B350B21
:1006A000E0912401F0912501E217F307A0F42E1B3D
:1006B0003F0B2817390778F0AC014E5F5F4F2417C6
:1006C000350748F04E0F5F1F5093250140932401DA
:1006D0008193919302C0E0E0F0E0CF01DF91CF91F0
:1006E0001F910F910895CF93DF93009709F481C074
:1006F000FC01329713821282A0912601B09127014A
:10070000109781F420813181820F931F2091240161
:10071000309125012817390751F5F0932501E09311
:10072000240167C0ED0120E030E0CE17DF0740F480
:100730004A815B819E0141155105F1F0EA01F5CF37
:10074000D383C28340815181840F951FC817D90775
:1007500059F488819981840F951F02969183808333
:100760008A819B81938382832115310529F4F0933B
:100770002701E09326013DC0E901FB83EA8349910B
:100780005991C40FD51FEC17FD0761F48081918149
:10079000840F951F0296E901998388838281938152
:1007A0009B838A83E0E0F0E012968D919C911397F1
:1007B000009719F0FD01DC01F7CF8D919C91119705
:1007C0009D012E5F3F4F820F931F20912401309196
:1007D00025012817390769F4309729F41092270169
:1007E0001092260102C013821282B0932501A093B9
:0C07F0002401DF91CF910895F894FFCF11
:1007FC00010000000000000200000000E00000000A
:08080C0000000000280120009B
:00000001FF
