:100000000C9446000C9465000C9465000C946500FB
:100010000C9465000C9465000C9465000C946500CC
:100020000C9465000C9465000C9465000C946500BC
:100030000C9465000C942D010C9465000C946500E3
:100040000C9465000C9465000C9465000C9465009C
:100050000C9465000C9465000C9465000C9465008C
:100060000C9465000C9465000C9465000C9465007C
:100070000C9465000C9465000C9465000C9465006C
:100080000C9465000C9465000C94650011241FBE4F
:10009000CFEFD0E4DEBFCDBF11E0A0E0B1E0E2EDF4
:1000A000F3E000E00BBF02C007900D92A231B10750
:1000B000D9F721E0A2E1B1E001C01D92AC31B20755
:1000C000E1F70E94C7010C94E7010C94000040E0A6
:1000D00050E00CC000002F5F3F4F02C020E030E036
:1000E000273063E03607B4F34F5F5F4F4817590777
:1000F000ACF308959BB19F7B9BB988B98BB18068A5
:100100008BB900008BB18F778BB982E090E00E94B1
:100110006700089581E00E947A000895813120F4FB
:1001200081580E947A00089581550E947A000895AE
:1001300084E690E00E94670088E30E947A0086E0EF
:100140000E947A008FE00E947A0081E00E947A008B
:100150008AE090E00E94670008959BB190649BB98B
:1001600088B98BB180688BB900008BB18F778BB960
:1001700081E090E00E9467000895EF92FF920F9354
:100180001F93CF93DF93182FEB010E948A000EC0BC
:1001900001E0010F812F0E948E007E018FEFE81A8F
:1001A000F80A88810E94AD00102FE7018881811133
:1001B000EFCFDF91CF911F910F91FF90EF900895B6
:1001C000CF93C82F8A3019F48DE00E94E00080910F
:1001D000C00085FFFCCFC093C60080E090E0CF91C7
:1001E0000895609300017093010180930201909340
:1001F0000301609312017093130180931401909393
:10020000150108958BE0809381008DE790E0909335
:1002100089008093880082E080936F0010928500AF
:10022000109284008091000190910101A09102013F
:10023000B09103018093120190931301A0931401D4
:10024000B09315018FB780688FBF08951092810019
:10025000089581E08093160108951F920F920FB6C2
:100260000F9211240BB60F922F933F934F935F93EE
:100270006F937F938F939F93AF93BF93EF93FF936E
:100280008091120190911301A0911401B091150178
:100290000197A109B1098093120190931301A093D2
:1002A0001401B0931501892B8A2B8B2B91F40E949A
:1002B00029018091000190910101A0910201B0916A
:1002C00003018093120190931301A0931401B09342
:1002D0001501FF91EF91BF91AF919F918F917F9108
:1002E0006F915F914F913F912F910F900BBE0F90A7
:1002F0000FBE0F901F9018958091170190911801D3
:10030000009719F0019769F008C081E090E09093A0
:1003100018018093170115B804C0109218011092AB
:1003200017018091170190911801009719F001971A
:1003300019F0089515B808958091190185B90895A7
:1003400080911A0190911B01009719F0019771F0AB
:1003500009C081E090E090931B0180931A011092F4
:10036000190104C010921B0110921A0180911A0108
:1003700090911B01009719F0019721F008951092B8
:100380001901089580B1809580931901089511B8DD
:100390008FEF82B984B915B864E670E080E090E030
:1003A0000E94F1000E9402011092180110921701A0
:1003B00010921B0110921A010E94A0010E947C0160
:1003C000809116018823E1F310921601F5CFF8947D
:0203D000FFCF5D
:1003D200010000000000000200000000E000000038
:0203E200000019
:00000001FF
