:100000000C9446000C9465000C9465000C946500FB
:100010000C9465000C9465000C9465000C946500CC
:100020000C9465000C9465000C9465000C946500BC
:100030000C9465000C9465000C9465000C946500AC
:100040000C9465000C9465000C9465000C9465009C
:100050000C9465000C9465000C9465000C9465008C
:100060000C9465000C9465000C9465000C9465007C
:100070000C9465000C9465000C9465000C9465006C
:100080000C9465000C9465000C94650011241FBE4F
:10009000CFEFD0E4DEBFCDBF11E0A0E0B1E0E2E8F9
:1000A000F2E000E00BBF02C007900D92A231B10751
:1000B000D9F721E0A2E1B1E001C01D92A731B2075A
:1000C000E1F70E942E010C943F010C940000CF93A5
:1000D000C82F8A3019F48DE00E9467008091C0001B
:1000E00085FFFCCFC093C60080E090E0CF910895DB
:1000F000823461F018F4813431F00895833449F08A
:10010000843451F0089561B942B9089564B945B98C
:10011000089567B948B908956AB94BB9089570E070
:100120009B0102C0359527958A95E2F7C901817038
:10013000089521E030E0A90102C0440F551F8A95BF
:10014000E2F7CA01862B089521E030E002C0220FB9
:10015000331F8A95E2F7822F80958623089521E048
:1001600030E0A90102C0440F551F8A95E2F7CA0189
:1001700086270895861708F4682F862F0895681734
:1001800008F4682F862F0895CF9360B180E00E9415
:100190008F00C1E08111C0E0C093130160B181E024
:1001A0000E948F0021E0811120E0209316018091B0
:1001B0001401909115018230910581F083309105F1
:1001C000B9F1892B09F045C081E08093120182E0EA
:1001D00090E090931501809314013BC0CC2399F0DB
:1001E000211111C080911201880F80931201813278
:1001F00018F081E08093120183E090E09093150164
:100200008093140126C0C11124C0222311F18091D2
:100210001201869580931201811103C080E28093C0
:10022000120183E090E0909315018093140111C0B6
:10023000C11102C0222339F083E090E090931501B0
:100240008093140106C082E090E0909315018093A2
:1002500014018091120185B9CF9108954FEF60E0AC
:1002600081E40E94780040E06FEF82E40E94780011
:1002700010921501109214010E94C400FDCFF89451
:02028000FFCFAE
:10028200000000020000000067000000000000FF04
:02029200FF006B
:00000001FF
