:100000000C948B000C94AA000C94AA000C94AA00E7
:100010000C94AA000C94AA000C94AA000C94AA00B8
:100020000C94AA000C94AA000C94AA000C94AA00A8
:100030000C94AA000C9468020C94AA000C94AA00D8
:100040000C94AA000C94AA000C94AA000C94AA0088
:100050000C94AA000C94AA000C94AA000C94AA0078
:100060000C94AA000C94AA000C94AA000C94AA0068
:100070000C94AA000C94AA000C94AA000C94AA0058
:100080000C94AA000C94AA000C94AA006D038D0392
:100090008D038D038D038D038D038D038D038D03E0
:1000A0008D038D038D038D038D038D038D038D03D0
:1000B0008D038D038D038D038D038D038D038D03C0
:1000C0008D038D038D038D038D038D038D038D03B0
:1000D0008D038B038D038D038D038D038D038D03A2
:1000E00089038D038D038D038D038D038F036F03B0
:1000F000710373037503770379037B037D037F0328
:100100008D038D038D038D038D038D038D0381037B
:1001100083038503870311241FBECFEFD0E4DEBF26
:10012000CDBF11E0A0E0B1E0EEEFFCE000E00BBFDE
:1001300002C007900D92A634B107D9F721E0A6E4DA
:10014000B1E001C01D92AE35B207E1F70E94A304F1
:100150000C947D060C94000040E050E00CC00000C0
:100160002F5F3F4F02C020E030E0273063E03607CA
:10017000B4F34F5F5F4F48175907ACF3089595B13B
:100180009F7B95B98BB985B1806885B9000085B131
:100190008F7785B982E090E00E94AC00089581E0FD
:1001A0000E94BF000895813120F481580E94BF0051
:1001B000089581550E94BF00089584E690E00E9452
:1001C000AC0088E30E94BF0086E00E94BF008FE081
:1001D0000E94BF0081E00E94BF008AE090E00E9480
:1001E000AC00089595B1906495B98BB985B18068DC
:1001F00085B9000085B18F7785B981E090E00E94D4
:10020000AC000895EF92FF920F931F93CF93DF936B
:10021000182FEB010E94CF000EC001E0010F812FCB
:100220000E94D3007E018FEFE81AF80A88810E94AD
:10023000F200102FE70188818111EFCFDF91CF917C
:100240001F910F91FF90EF900895CF93C82F8A30A0
:1002500019F48DE00E9425018091C00085FFFCCF3C
:10026000C093C60080E090E0CF910895EAE7F0E007
:100270008081806E80830895823461F018F4813427
:1002800031F00895833449F0843451F0089561B910
:1002900042B9089564B945B9089567B948B9089550
:1002A0006AB94BB9089570E09B0102C03595279556
:1002B0008A95E2F7C9018170089521E030E0A90133
:1002C00002C0440F551F8A95E2F7CA01862B089594
:1002D00021E030E002C0220F331F8A95E2F7822F1F
:1002E00080958623089521E030E0A90102C0440FE3
:1002F000551F8A95E2F7CA01862708958230910535
:10030000A1F028F4009749F0019751F01DC0833007
:10031000910581F0049799F017C081E090E008956D
:100320006623A9F082E090E00895662399F083E0C7
:1003300090E00895662389F083E090E008956623B5
:1003400079F082E090E0089580E090E0089581E007
:1003500090E0089584E090E0089584E090E00895AE
:1003600081E090E008950E94530191E0811190E0B6
:10037000892F0895CF92DF92EF92FF926B017C015B
:1003800060914D0170914E0180914F01909150010B
:10039000A70196010E94E904882309F458C020E0CF
:1003A00030E0A901C701B6010E94E904811106C02D
:1003B000E1E9F0E080818870808305C0E1E9F0E048
:1003C00080818360808328E539E344E75FE3C701E8
:1003D000B6010E94E90488233CF48FEF9FEF9093CD
:1003E00099008093980027C020E034E244EF56E45F
:1003F000C701B6010E940B0618162CF41092990042
:100400001092980018C020E030E040E053E4C701AB
:10041000B6010E9410069B01AC0160E074E284EF1B
:100420009AE40E94EE040E94600561507109709385
:100430009900609398001092950010929400C092D9
:100440004D01D0924E01E0924F01F0925001FF9089
:10045000EF90DF90CF90089580E4809390008BE040
:100460008093910060E070E0CB010E94BA01089592
:10047000109290001092910008958BE0809381007B
:100480008DE790E0909389008093880082E08093CC
:100490006F0010928500109284008091000190916D
:1004A0000101A0910201B091030180934601909354
:1004B0004701A0934801B09349018FB780688FBF6F
:1004C000089510928100089581E080934A01089573
:1004D0001F920F920FB60F9211240BB60F922F930B
:1004E0003F934F935F936F937F938F939F93AF93BC
:1004F000BF93EF93FF938091460190914701A091A4
:100500004801B09149010197A109B10980934601C1
:1005100090934701A0934801B0934901892B8A2BFE
:100520008B2B91F40E946402809100019091010153
:10053000A0910201B091030180934601909347017D
:10054000A0934801B0934901FF91EF91BF91AF9102
:100550009F918F917F916F915F914F913F912F91DB
:100560000F900BBE0F900FBE0F901F9018956093C9
:100570000001709301018093020190930301609345
:100580004601709347018093480190934901089573
:10059000861708F4682F862F0895681708F4682FC7
:1005A000862F0895CF938FEE88B90000C6B16C2FC7
:1005B00080E00E94B301811168C06C2F81E00E942D
:1005C000B301811164C06C2F82E00E94B3018111DC
:1005D00060C06C2F83E00E94B30181115CC08FED7D
:1005E00088B90000C6B16C2F80E00E94B301811170
:1005F00054C06C2F81E00E94B301811150C06C2F58
:1006000082E00E94B30181114CC06C2F83E00E94F4
:10061000B301811148C08FEB88B90000C6B16C2FBF
:1006200080E00E94B301811140C06C2F81E00E94E4
:10063000B30181113CC06C2F82E00E94B301811193
:1006400038C06C2F83E00E94B301811134C08FE762
:1006500088B90000C6B16C2F80E00E94B3018111FF
:100660002CC06C2F81E00E94B301811128C06C2F37
:1006700082E00E94B301811124C06C2F83E00E94AC
:10068000B3018823F9F084E41DC081E31BC084E337
:1006900019C087E317C08AE215C082E313C085E35F
:1006A00011C088E30FC080E30DC083E30BC086E375
:1006B00009C089E307C083E205C081E403C082E486
:1006C00001C083E4CF91089590E08534910528F529
:1006D000FC01EA5BFF4F0C94E0049FE121C091E034
:1006E0001FC092E01DC093E01BC094E019C095E0CC
:1006F00017C096E015C097E013C098E011C099E0CC
:100700000FC09AE00DC09BE00BC09CE009C09DE0CB
:1007100007C09EE005C09FE003C09BE101C090E0E0
:1007200085B1807E892B85B90895CF93DF93029799
:1007300018F4C1E0D0E002C0C0E0D0E0C130D10583
:1007400021F40E94D2020E946403CE01DF91CF9176
:100750000895CF92DF92EF92FF921F93CF93DF9392
:100760006B017C0110E031C08BE0189FE001112487
:10077000CF5ADE4FD0934C01C0934B018D819E81A7
:10078000AF81B88549815A816B817C818417950737
:10079000A607B70788F0E985FA858881082E000C3E
:1007A000990B09958883E0914B01F0914C011582DA
:1007B00016821782108608C08C0D9D1DAE1DBF1DB0
:1007C0008D839E83AF83B8871F5F112369F2DF910A
:1007D000CF911F91FF90EF90DF90CF90089540E070
:1007E0006FEF82E40E943C014FE060EF83E40E94DF
:1007F0003C0140E06FEF84E40E943C010895CF92F9
:10080000DF92EF92FF920F931F937BE0879FC001CF
:100810001124FC01EF5AFE4F60832183328343830E
:100820005483E582F68207831087D286C1861F91A2
:100830000F91FF90EF90DF90CF900895CF92DF92CD
:10084000EF92FF920F931F93FC010081118122818F
:100850003381FB01C080D180E280F380FC01C08243
:10086000D182E282F382FB010083118322833383EE
:100870001F910F91FF90EF90DF90CF9008954F92CE
:100880005F926F927F92CF92DF92EF92FF922B0155
:100890003C01621773078407950738F069017A01F4
:1008A000E62F752D862D972D17C06B017C01E22F49
:1008B000732F842F952F10C06E2FA70196010E94D1
:1008C000BE04572F482F292FEC2D7D2D8E2D9F2DC7
:1008D000C62ED52EE42EF22EC114D104E104F1046B
:1008E00059F76E2FFF90EF90DF90CF907F906F9031
:1008F0005F904F90089560915201709153018091E3
:100900005401909155010895CF92DF92EF92FF929A
:100910000F931F930F2EF5E9CF2EF3E0DF2EF02D6E
:10092000E12CF12C8701E39421E030E040E050E03D
:1009300060E080E00E94FF031F910F91FF90EF9015
:10094000DF90CF9008950E94EF030E9484040E94DC
:100950007B046B017C010E94B7020E943D020E9451
:10096000DD000E94CF00C701B6010E94A90380915B
:100970004A018823E1F310924A01F5CFA1E21A2E31
:10098000AA1BBB1BFD010DC0AA1FBB1FEE1FFF1F33
:10099000A217B307E407F50720F0A21BB30BE40B83
:1009A000F50B661F771F881F991F1A9469F76095CA
:1009B0007095809590959B01AC01BD01CF01089584
:1009C000EE0FFF1F0024001C0BBE0790F691E02DD8
:1009D00009940E94960508F481E008950E9402059A
:1009E0000C94D1050E94CA0558F00E94C30540F03E
:1009F00029F45F3F29F00C94BA0551110C940506B7
:100A00000C94C0050E94E20568F39923B1F35523C5
:100A100091F3951B550BBB27AA2762177307840711
:100A200038F09F5F5F4F220F331F441FAA1FA9F3A7
:100A300035D00E2E3AF0E0E832D091505040E69595
:100A4000001CCAF72BD0FE2F29D0660F771F881FF6
:100A5000BB1F261737074807AB07B0E809F0BB0BE9
:100A6000802DBF01FF2793585F4F3AF09E3F5105FD
:100A700078F00C94BA050C9405065F3FE4F3983EB9
:100A8000D4F3869577956795B795F7959F5FC9F7E6
:100A9000880F911D9695879597F90895E1E0660F67
:100AA000771F881FBB1F621773078407BA0720F0E0
:100AB000621B730B840BBA0BEE1F88F7E095089549
:100AC0000E9467056894B1110C94050608950E9470
:100AD000EA0588F09F5798F0B92F9927B751B0F0E1
:100AE000E1F0660F771F881F991F1AF0BA95C9F7B2
:100AF00014C0B13091F00E940406B1E008950C9446
:100B00000406672F782F8827B85F39F0B93FCCF3F8
:100B1000869577956795B395D9F73EF4909580952E
:100B2000709561957F4F8F4F9F4F0895990F0008E3
:100B3000550FAA0BE0E8FEEF16161706E807F907AF
:100B4000C0F012161306E407F50798F0621B730B4A
:100B5000840B950B39F40A2661F0232B242B252BCB
:100B600021F408950A2609F4A140A6958FEF811D6E
:100B7000811D089597F99F6780E870E060E008950F
:100B80009FEF80EC089500240A94161617061806A5
:100B90000906089500240A94121613061406050681
:100BA0000895092E0394000C11F4882352F0BB0F12
:100BB00040F4BF2B11F460FF04C06F5F7F4F8F4F75
:100BC0009F4F089557FD9058440F551F59F05F3FB0
:100BD00071F04795880F97FB991F61F09F3F79F05F
:100BE00087950895121613061406551FF2CF4695E1
:100BF000F1DF08C0161617061806991FF1CF869563
:100C00007105610508940895E894BB276627772746
:100C1000CB0197F908950E94960508F48FEF089587
:100C20000E9423060C94D1050E94C30538F00E944F
:100C3000CA0520F0952311F00C94BA050C94C00558
:100C400011240C9405060E94E20570F3959FC1F3F0
:100C5000950F50E0551F629FF001729FBB27F00D6A
:100C6000B11D639FAA27F00DB11DAA1F649F6627BF
:100C7000B00DA11D661F829F2227B00DA11D621F0E
:100C8000739FB00DA11D621F839FA00D611D221FC8
:100C9000749F3327A00D611D231F849F600D211DAC
:100CA000822F762F6A2F11249F5750409AF0F1F02F
:100CB00088234AF0EE0FFF1FBB1F661F771F881F98
:100CC00091505040A9F79E3F510580F00C94BA0511
:100CD0000C9405065F3FE4F3983ED4F38695779530
:100CE0006795B795F795E7959F5FC1F7FE2B880F3E
:0E0CF000911D9695879597F90895F894FFCF7A
:100CFE0001000000A4D082437BD49243A4D0A4432D
:100D0E00719DAE439A19C4430000DC43A4F0F64330
:100D1E0000D0024400000002000000002501000087
:100D2E0000000FF00000000007060504030201009A
:060D3E00070800FFFF00A2
:00000001FF
