:100000000C948B000C94AA000C94AA000C94AA00E7
:100010000C94AA000C94AA000C94AA000C94AA00B8
:100020000C94AA000C94AA000C94AA000C94AA00A8
:100030000C94AA000C9468020C94AA000C94AA00D8
:100040000C94AA000C94AA000C94AA000C94AA0088
:100050000C94AA000C94AA000C94AA000C94AA0078
:100060000C94AA000C94AA000C94AA000C94AA0068
:100070000C94AA000C94AA000C94AA000C94AA0058
:100080000C94AA000C94AA000C94AA00DA03FA03B8
:10009000FA03FA03FA03FA03FA03FA03FA03FA0378
:1000A000FA03FA03FA03FA03FA03FA03FA03FA0368
:1000B000FA03FA03FA03FA03FA03FA03FA03FA0358
:1000C000FA03FA03FA03FA03FA03FA03FA03FA0348
:1000D000FA03F803FA03FA03FA03FA03FA03FA033A
:1000E000F603FA03FA03FA03FA03FA03FC03DC0348
:1000F000DE03E003E203E403E603E803EA03EC03C0
:10010000FA03FA03FA03FA03FA03FA03FA03EE0313
:10011000F003F203F40311241FBECFEFD0E4DEBFDF
:10012000CDBF11E0A0E0B1E0EAE7F4E100E00BBFF1
:1001300002C007900D92A835B107D9F721E0A8E5D4
:10014000B1E001C01D92AB39B207E1F70E942D0763
:100150000C943B0A0C94000040E050E00CC00000FE
:100160002F5F3F4F02C020E030E0273063E03607CA
:10017000B4F34F5F5F4F48175907ACF3089595B13B
:100180009F7B95B98BB985B1806885B9000085B131
:100190008F7785B982E090E00E94AC00089581E0FD
:1001A0000E94BF000895813120F481580E94BF0051
:1001B000089581550E94BF00089584E690E00E9452
:1001C000AC0088E30E94BF0086E00E94BF008FE081
:1001D0000E94BF0081E00E94BF008AE090E00E9480
:1001E000AC00089595B1906495B98BB985B18068DC
:1001F00085B9000085B18F7785B981E090E00E94D4
:10020000AC000895EF92FF920F931F93CF93DF936B
:10021000182FEB010E94CF000EC001E0010F812FCB
:100220000E94D3007E018FEFE81AF80A88810E94AD
:10023000F200102FE70188818111EFCFDF91CF917C
:100240001F910F91FF90EF900895CF93C82F8A30A0
:1002500019F48DE00E9425018091C00085FFFCCF3C
:10026000C093C60080E090E0CF910895EAE7F0E007
:100270008081806E80830895823461F018F4813427
:1002800031F00895833449F0843451F0089561B910
:1002900042B9089564B945B9089567B948B9089550
:1002A0006AB94BB9089570E09B0102C03595279556
:1002B0008A95E2F7C9018170089521E030E0A90133
:1002C00002C0440F551F8A95E2F7CA01862B089594
:1002D00021E030E002C0220F331F8A95E2F7822F1F
:1002E00080958623089521E030E0A90102C0440FE3
:1002F000551F8A95E2F7CA01862708958230910535
:10030000A1F028F4009749F0019751F01DC0833007
:10031000910581F0049799F017C081E090E008956D
:100320006623A9F082E090E00895662399F083E0C7
:1003300090E00895662389F083E090E008956623B5
:1003400079F082E090E0089580E090E0089581E007
:1003500090E0089584E090E0089584E090E00895AE
:1003600081E090E008950E94530191E0811190E0B6
:10037000892F0895CF92DF92EF92FF926B017C015B
:1003800060915F01709160018091610190916201C3
:10039000A70196010E948607882309F458C020E02F
:1003A00030E0A901C701B6010E948607811106C08D
:1003B000E1E9F0E080818870808305C0E1E9F0E048
:1003C00080818360808328E539E344E75FE3C701E8
:1003D000B6010E94860788233CF48FEF9FEF90932D
:1003E00099008093980027C020E034E244EF56E45F
:1003F000C701B6010E94A80818162CF410929900A3
:100400001092980018C020E030E040E053E4C701AB
:10041000B6010E94AD089B01AC0160E074E284EF7C
:100420009AE40E948B070E94FD0761507109709346
:100430009900609398001092950010929400C092D9
:100440005F01D0926001E0926101F0926201FF9041
:10045000EF90DF90CF90089580E4809390008BE040
:100460008093910060E070E0CB010E94BA01089592
:10047000109290001092910008958BE0809381007B
:100480008DE790E0909389008093880082E08093CC
:100490006F00109285001092840080910B01909162
:1004A0000C01A0910D01B0910E0180935801909321
:1004B0005901A0935A01B0935B018FB780688FBF39
:1004C000089510928100089581E080935C01089561
:1004D0001F920F920FB60F9211240BB60F922F930B
:1004E0003F934F935F936F937F938F939F93AF93BC
:1004F000BF93EF93FF938091580190915901A09180
:100500005A01B0915B010197A109B109809358018B
:1005100090935901A0935A01B0935B01892B8A2BC8
:100520008B2B91F40E94640280910B0190910C013D
:10053000A0910D01B0910E01809358019093590143
:10054000A0935A01B0935B01FF91EF91BF91AF91DE
:100550009F918F917F916F915F914F913F912F91DB
:100560000F900BBE0F900FBE0F901F9018956093C9
:100570000B0170930C0180930D0190930E01609319
:1005800058017093590180935A0190935B0108952B
:10059000861708F4682F862F0895681708F4682FC7
:1005A000862F0895817008950E94D20291E08111F2
:1005B00090E0892F0895FC0101C04193E617F707E9
:1005C000E0F30895CF92DF92EF92FF920F931F9383
:1005D000FC010081118122813381FB01C080D18027
:1005E000E280F380FC01C082D182E282F382FB01CF
:1005F00000831183228333831F910F91FF90EF902B
:10060000DF90CF9008954F925F926F927F92CF923A
:10061000DF92EF92FF922B013C0162177307840770
:10062000950738F069017A01E62F752D862D972DF3
:1006300017C06B017C01E22F732F842F952F10C000
:100640006E2FA70196010E945B07572F482F292F75
:10065000EC2D7D2D8E2D9F2DC62ED52EE42EF22E27
:10066000C114D104E104F10459F76E2FFF90EF900B
:10067000DF90CF907F906F905F904F900895CF93D1
:100680008FEE88B90000C6B16C2F80E00E94B301E4
:10069000811168C06C2F81E00E94B301811164C098
:1006A0006C2F82E00E94B301811160C06C2F83E047
:1006B0000E94B30181115CC08FED88B90000C6B102
:1006C0006C2F80E00E94B301811154C06C2F81E037
:1006D0000E94B301811150C06C2F82E00E94B301CF
:1006E00081114CC06C2F83E00E94B301811148C07E
:1006F0008FEB88B90000C6B16C2F80E00E94B30177
:10070000811140C06C2F81E00E94B30181113CC077
:100710006C2F82E00E94B301811138C06C2F83E0FE
:100720000E94B301811134C08FE788B90000C6B1BF
:100730006C2F80E00E94B30181112CC06C2F81E0EE
:100740000E94B301811128C06C2F82E00E94B30186
:10075000811124C06C2F83E00E94B3018823F9F03B
:1007600084E41DC081E31BC084E319C087E317C084
:100770008AE215C082E313C085E311C088E30FC08D
:1007800080E30DC083E30BC086E309C089E307C0A3
:1007900083E205C081E403C082E401C083E4CF9119
:1007A000089590E08534910528F5FC01EA5BFF4F40
:1007B0000C947D079FE121C091E01FC092E01DC015
:1007C00093E01BC094E019C095E017C096E015C0F7
:1007D00097E013C098E011C099E00FC09AE00DC0F7
:1007E0009BE00BC09CE009C09DE007C09EE005C0F7
:1007F0009FE003C09BE101C090E085B1807E892B22
:1008000085B90895240F689F200D1124822F089523
:10081000462F21E060E10E9402040E94D300089567
:100820000E94CF0008950E94F20081E090E00E94B3
:10083000AC0008950F931F93CF93DF938B01EC01CE
:1008400007C089910E94F20081E090E00E94AC0014
:10085000C017D107B0F3DF91CF911F910F91089589
:100860001F93CF93DF93182F86E090E00E941A0920
:10087000EC01812F90E00E941A09998388831A82E3
:100880001B821C821D83CE01DF91CF911F910895A1
:10089000FC01948181E0911180E00895FC012481A4
:1008A000958181E0291380E00895FC0184810895F9
:1008B000FC011282138214820895FC0194818581C7
:1008C000981788F4A081B1818381A80FB11D6C9322
:1008D00083818F5F65810E944F07938384818F5F3F
:1008E000848380E0089581E00895CF93DF93EC0145
:1008F00060B180E00E94B301682FCE010E947E01AA
:10090000EC01029739F463E58091690190916A01E5
:100910000E945D04CE01DF91CF910895CF93DF93C4
:10092000EC0160B181E00E94B301682FCE010E940A
:100930007E01EC01029739F465E58091690190919F
:100940006A010E945D04CE01DF91CF910895CF939B
:10095000DF93EC0160B182E00E94B301682FCE0109
:100960000E947E01EC01029739F464E480916901F0
:1009700090916A010E945D04CE01DF91CF910895AC
:10098000FC018481882389F0A081B1818281A80F34
:10099000B11D2C911C9282818F5F65810E944F074F
:1009A0009283848181508483822F0895EF92FF92F5
:1009B0000F931F93CF93DF936623C9F0E42ED62FB6
:1009C0008C01C0E0F12C10C0C8010E94C004682F47
:1009D000F11006C0E81204C081E0F11080E0F82EAA
:1009E000C8010E945D04CF5FCD1770F301C0F12CE8
:1009F0008F2DDF91CF911F910F91FF90EF90089570
:100A00000E94580408950E94550408950E944804C5
:100A10000895E7E6F1E0108284E081830895E7E637
:100A2000F1E0808361830E9408040895E3E6F1E029
:100A300010828AE0818381E082838EE0838308953F
:100A40000F931F93CF93DF93162F042F6230C8F4B8
:100A5000413108F00FE0C82FD0E0CC0FDD1FCD5999
:100A6000DE4F698188810E94080480E20E9413049D
:100A700018830983602F812F0E94080483E20E945B
:100A80001304DF91CF911F910F9108950F931F933E
:100A9000CF93DF938230910581F034F4009751F0C9
:100AA000019709F457C053C083309105C1F00497F2
:100AB000E9F14DC001E010E05BC0C0916901D09147
:100AC0006A01CE010E94030543E5682FCE010E9412
:100AD000D604882309F441C003E010E049C0C09166
:100AE0006901D0916A01CE010E94030543E5682F98
:100AF000CE010E94D604811133C0C0916901D0910A
:100B00006A01CE010E94030547E4682FCE010E94CE
:100B1000D604882341F10E9410046AE071E080E06D
:100B200091E00E941A0404E010E022C0C091690123
:100B3000D0916A01CE010E94030543E5682FCE01E2
:100B40000E94D604882391F001E010E011C000E07B
:100B500010E00EC002E010E00BC002E010E008C0A0
:100B600001E010E005C003E010E002C004E010E086
:100B70000230110561F124F40130110549F081C002
:100B80000330110559F10430110509F474C079C01E
:100B90000E9410040E9409050E941605C3E6D1E0D8
:100BA0004981688180E00E9420054B816A8181E053
:100BB0000E942005E7E6F1E0618180810E940F0537
:100BC0008091690190916A010E9400055AC080914C
:100BD000690190916A010E94000553C0C3E6D1E00B
:100BE00049814150688180E00E9420054B8141503D
:100BF0006A8181E00E94200512C0CE010E94C004DB
:100C0000853531F46091680180E00E940F0507C0CE
:100C1000843429F46091680181E00E940F05C0913D
:100C20006901D0916A01CE010E940605882329F34B
:100C3000C7E6D1E0698188810E940F058881909183
:100C40006301891306C020916801909164012917FE
:100C500051F090916501891314C0909168018091C1
:100C6000660198130EC067E48091690190916A0152
:100C70000E945D0406C08091690190916A010E9402
:100C80000005C801DF91CF911F910F910895CF9278
:100C9000DF92EF92FF921F93CF93DF936B017C0162
:100CA00010E031C08BE0189FE0011124C559DE4FE0
:100CB000D0935E01C0935D018D819E81AF81B88527
:100CC00049815A816B817C8184179507A607B707F4
:100CD00088F0E985FA858881082E000C990B099522
:100CE0008883E0915D01F0915E0115821682178282
:100CF000108608C08C0D9D1DAE1DBF1D8D839E836B
:100D0000AF83B8871F5F143068F2DF91CF911F91D6
:100D1000FF90EF90DF90CF9008954FEF60E081E477
:100D20000E943C0140E06FEF82E40E943C014FE0F2
:100D300060EF83E40E943C0140E06FEF84E40E9496
:100D40003C010895CF92DF92EF92FF920F931F9391
:100D50007BE0879FC0011124FC01E559FE4F6083B1
:100D60002183328343835483E582F682078310878D
:100D7000D286C1861F910F91FF90EF90DF90CF90A8
:100D80000895CF9360916C0170916D0180916E0117
:100D900090916F01C1E00DC02BE0C29FF0011124C2
:100DA000E559FE4F21813281438154810E94030322
:100DB000CF5FC43088F3CF910895CF92DF92EF9246
:100DC000FF920F931F930F2EF5E7CF2EF4E0DF2E47
:100DD000F02D12E3E12EF12C00E010E022E330E0F0
:100DE00040E050E060E080E00E94A2060F2EFEE8A6
:100DF000CF2EF4E0DF2EF02D22E330E040E050E093
:100E000060E081E00E94A2060F2EF7EACF2EF4E008
:100E1000DF2EF02D22E330E040E050E060E082E0A1
:100E20000E94A2060F2EF6E4CF2EF5E0DF2EF02D65
:100E300014EFE12EFF24F39400E010E024EF31E002
:100E400040E050E060E083E00E94A2061F910F9115
:100E5000FF90EF90DF90CF9008950E948D060E9442
:100E6000DD060E94C1066B017C010E94B7020E9450
:100E70003D020E94DD000E94CF0080E20E9430040B
:100E800090936A0180936901C701B6010E944706E9
:100E900080915C018823E1F310925C01F5CF991BEE
:100EA00079E004C0991F961708F0961B881F7A9561
:100EB000C9F780950895A1E21A2EAA1BBB1BFD015C
:100EC0000DC0AA1FBB1FEE1FFF1FA217B307E40729
:100ED000F50720F0A21BB30BE40BF50B661F771F81
:100EE000881F991F1A9469F7609570958095909561
:100EF0009B01AC01BD01CF010895EE0FFF1F00243F
:100F0000001C0BBE0790F691E02D09940E94330857
:100F100008F481E008950E949F070C946E080E94D7
:100F2000670858F00E94600840F029F45F3F29F0FC
:100F30000C94570851110C94A2080C945D080E945F
:100F40007F0868F39923B1F3552391F3951B550B53
:100F5000BB27AA2762177307840738F09F5F5F4F8C
:100F6000220F331F441FAA1FA9F335D00E2E3AF0CB
:100F7000E0E832D091505040E695001CCAF72BD0E3
:100F8000FE2F29D0660F771F881FBB1F2617370734
:100F90004807AB07B0E809F0BB0B802DBF01FF2766
:100FA00093585F4F3AF09E3F510578F00C945708E4
:100FB0000C94A2085F3FE4F3983ED4F386957795AE
:100FC0006795B795F7959F5FC9F7880F911D96951F
:100FD000879597F90895E1E0660F771F881FBB1F7B
:100FE000621773078407BA0720F0621B730B840B28
:100FF000BA0BEE1F88F7E09508950E9404086894E4
:10100000B1110C94A20808950E94870888F09F5798
:1010100098F0B92F9927B751B0F0E1F0660F771F1C
:10102000881F991F1AF0BA95C9F714C0B13091F012
:101030000E94A108B1E008950C94A108672F782FB1
:101040008827B85F39F0B93FCCF3869577956795D7
:10105000B395D9F73EF490958095709561957F4F43
:101060008F4F9F4F0895990F0008550FAA0BE0E886
:10107000FEEF16161706E807F907C0F0121613065A
:10108000E407F50798F0621B730B840B950B39F49A
:101090000A2661F0232B242B252B21F408950A2600
:1010A00009F4A140A6958FEF811D811D089597F940
:1010B0009F6780E870E060E008959FEF80EC0895FE
:1010C00000240A9416161706180609060895002427
:1010D0000A9412161306140605060895092E0394A1
:1010E000000C11F4882352F0BB0F40F4BF2B11F415
:1010F00060FF04C06F5F7F4F8F4F9F4F089557FD74
:101100009058440F551F59F05F3F71F04795880F75
:1011100097FB991F61F09F3F79F08795089512160C
:1011200013061406551FF2CF4695F1DF08C01616B8
:1011300017061806991FF1CF869571056105089469
:101140000895E894BB2766277727CB0197F9089580
:101150000E94330808F48FEF08950E94C0080C9491
:101160006E080E94600838F00E94670820F09523FE
:1011700011F00C9457080C945D0811240C94A208EB
:101180000E947F0870F3959FC1F3950F50E0551FA3
:10119000629FF001729FBB27F00DB11D639FAA27CC
:1011A000F00DB11DAA1F649F6627B00DA11D661F1B
:1011B000829F2227B00DA11D621F739FB00DA11D3C
:1011C000621F839FA00D611D221F749F3327A00DF6
:1011D000611D231F849F600D211D822F762F6A2F92
:1011E00011249F5750409AF0F1F088234AF0EE0FF7
:1011F000FF1FBB1F661F771F881F91505040A9F724
:101200009E3F510580F00C9457080C94A2085F3F54
:10121000E4F3983ED4F3869577956795B795F7955F
:10122000E7959F5FC1F7FE2B880F911D96958795D7
:1012300097F908950F931F93CF93DF938230910511
:1012400010F482E090E0E0919901F0919A0120E0A1
:1012500030E0A0E0B0E0309719F140815181028187
:10126000138148175907C8F08417950769F4109738
:1012700031F012960C93129713961C9327C000938B
:10128000990110939A0122C02115310519F04217D6
:10129000530718F49A01BD01EF01DF01F801DBCF1C
:1012A00021153105F9F0281B390B2430310580F464
:1012B0008A819B816115710521F0FB0193838283F3
:1012C00004C090939A0180939901FE01329644C024
:1012D000FE01E20FF31F819391932250310939836C
:1012E00028833AC02091970130919801232B41F433
:1012F00020913F0130914001309398012093970154
:1013000020913D0130913E012115310541F42DB769
:101310003EB74091410150914201241B350BE091B1
:101320009701F0919801E217F307A0F42E1B3F0BF1
:101330002817390778F0AC014E5F5F4F2417350747
:1013400048F04E0F5F1F509398014093970181938F
:10135000919302C0E0E0F0E0CF01DF91CF911F91C7
:101360000F910895CF93DF93009709F481C0FC019A
:10137000329713821282A0919901B0919A0110972D
:1013800081F420813181820F931F20919701309148
:1013900098012817390751F5F0939801E0939701C8
:1013A00067C0ED0120E030E0CE17DF0740F44A814E
:1013B0005B819E0141155105F1F0EA01F5CFD38320
:1013C000C28340815181840F951FC817D90759F4F2
:1013D00088819981840F951F0296918380838A81E9
:1013E0009B81938382832115310529F4F0939A011F
:1013F000E09399013DC0E901FB83EA83499159914A
:10140000C40FD51FEC17FD0761F480819181840F13
:10141000951F0296E90199838883828193819B833A
:101420008A83E0E0F0E012968D919C9113970097EB
:1014300019F0FD01DC01F7CF8D919C9111979D0171
:101440002E5F3F4F820F931F20919701309198019B
:101450002817390769F4309729F410929A011092ED
:10146000990102C013821282B0939801A093970150
:0A147000DF91CF910895F894FFCFAB
:10147A0047616D65204F766572210001000000A466
:10148A00D082437BD49243A4D0A443719DAE439AA5
:10149A0019C4430000DC43A4F0F64300D002440020
:1014AA000000020000000025010000000000009B6F
:1014BA000120000FF00000000007060504030201E6
:0814CA0000070800FFFF00000D
:00000001FF
