:100000000C948B000C94AA000C94AA000C94AA00E7
:100010000C94AA000C94AA000C94AA000C94AA00B8
:100020000C94AA000C94AA000C94AA000C94AA00A8
:100030000C94AA000C946E020C94AA000C94AA00D2
:100040000C94AA000C94AA000C94AA000C94AA0088
:100050000C94AA000C94AA000C94AA000C94AA0078
:100060000C94AA000C94AA000C94AA000C94AA0068
:100070000C94AA000C94AA000C94AA000C94AA0058
:100080000C94AA000C94AA000C94AA00E0030004AB
:100090000004000400040004000400040004000440
:1000A0000004000400040004000400040004000430
:1000B0000004000400040004000400040004000420
:1000C0000004000400040004000400040004000410
:1000D0000004FE0300040004000400040004000403
:1000E000FC03000400040004000400040204E20312
:1000F000E403E603E803EA03EC03EE03F003F20390
:100100000004000400040004000400040004F403DC
:10011000F603F803FA0311241FBECFEFD0E4DEBFCD
:10012000CDBF11E0A0E0B1E0E2EFFDE000E00BBFE9
:1001300002C007900D92A634B107D9F721E0A6E4DA
:10014000B1E001C01D92A237B207E1F70E941D0580
:100150000C94F7060C94000040E050E00CC0000046
:100160002F5F3F4F02C020E030E0273063E03607CA
:10017000B4F34F5F5F4F48175907ACF3089595B13B
:100180009F7B95B98BB985B1806885B9000085B131
:100190008F7785B982E090E00E94AC00089581E0FD
:1001A0000E94BF000895813120F481580E94BF0051
:1001B000089581550E94BF00089584E690E00E9452
:1001C000AC0088E30E94BF0086E00E94BF008FE081
:1001D0000E94BF0081E00E94BF008AE090E00E9480
:1001E000AC00089595B1906495B98BB985B18068DC
:1001F00085B9000085B18F7785B981E090E00E94D4
:10020000AC000895EF92FF920F931F93CF93DF936B
:10021000182FEB010E94CF000EC001E0010F812FCB
:100220000E94D3007E018FEFE81AF80A88810E94AD
:10023000F200102FE70188818111EFCFDF91CF917C
:100240001F910F91FF90EF900895CF93C82F8A30A0
:1002500019F48DE00E9425018091C00085FFFCCF3C
:10026000C093C60080E090E0CF91089580E090E0D8
:10027000089580E090E00895EAE7F0E08081806EE4
:1002800080830895823461F018F4813431F0089548
:10029000833449F0843451F0089561B942B9089526
:1002A00064B945B9089567B948B908956AB94BB9B1
:1002B000089570E09B0102C0359527958A95E2F775
:1002C000C9018170089521E030E0A90102C0440F06
:1002D000551F8A95E2F7CA01862B089521E030E088
:1002E00002C0220F331F8A95E2F7822F8095862362
:1002F000089521E030E0A90102C0440F551F8A95FE
:10030000E2F7CA018627089582309105A1F028F40A
:10031000009749F0019751F01DC08330910581F09D
:10032000049799F017C081E090E008956623A9F042
:1003300082E090E00895662399F083E090E00895CC
:10034000662389F083E090E00895662379F082E0E7
:1003500090E0089580E090E0089581E090E00895B5
:1003600084E090E0089584E090E0089581E090E0DA
:1003700008950E94590191E0811190E0892F08951C
:10038000CF92DF92EF92FF926B017C0160914D0161
:1003900070914E0180914F0190915001A7019601FB
:1003A0000E946305882309F458C020E030E0A901C9
:1003B000C701B6010E946305811106C0E1E9F0E0C2
:1003C00080818870808305C0E1E9F0E080818360EE
:1003D000808328E539E344E75FE3C701B6010E9463
:1003E000630588233CF48FEF9FEF909399008093EF
:1003F000980027C020E034E244EF56E4C701B6017C
:100400000E94850618162CF41092990010929800FC
:1004100018C020E030E040E053E4C701B6010E947C
:100420008A069B01AC0160E074E284EF9AE40E94CA
:1004300068050E94DA056150710970939900609314
:1004400098001092950010929400C0924D01D092A5
:100450004E01E0924F01F0925001FF90EF90DF903B
:10046000CF90089580E4809390008BE0809391007A
:1004700060E070E0CB010E94C001089510929000EE
:100480001092910008958BE0809381008DE790E0B9
:10049000909389008093880082E080936F0010928F
:1004A0008500109284008091000190910101A0913B
:1004B0000201B09103018093460190934701A093FC
:1004C0004801B09349018FB780688FBF089510929B
:1004D0008100089581E080934A0108951F920F9250
:1004E0000FB60F9211240BB60F922F933F934F9399
:1004F0005F936F937F938F939F93AF93BF93EF938C
:10050000FF938091460190914701A0914801B091DD
:1005100049010197A109B1098093460190934701D0
:10052000A0934801B0934901892B8A2B8B2B91F41E
:100530000E946A028091000190910101A091020144
:10054000B09103018093460190934701A093480125
:10055000B0934901FF91EF91BF91AF919F918F911E
:100560007F916F915F914F913F912F910F900BBEB3
:100570000F900FBE0F901F9018956093000170931D
:1005800001018093020190930301609346017093EF
:10059000470180934801909349010895861708F414
:1005A000682F862F0895681708F4682F862F0895FE
:1005B000817008950E94D80291E0811190E0892F06
:1005C0000895FC0101C04193E617F707E0F3089591
:1005D000CF92DF92EF92FF920F931F93FC01008165
:1005E000118122813381FB01C080D180E280F380C0
:1005F000FC01C082D182E282F382FB01008311837D
:10060000228333831F910F91FF90EF90DF90CF9063
:1006100008954F925F926F927F92CF92DF92EF9206
:10062000FF922B013C01621773078407950738F08E
:1006300069017A01E62F752D862D972D17C06B0164
:100640007C01E22F732F842F952F10C06E2FA701EE
:1006500096010E943805572F482F292FEC2D7D2D0C
:100660008E2D9F2DC62ED52EE42EF22EC114D10430
:10067000E104F10459F76E2FFF90EF90DF90CF90D7
:100680007F906F905F904F900895CF938FEE88B9D1
:100690000000C6B16C2F80E00E94B901811168C0D2
:1006A0006C2F81E00E94B901811164C06C2F82E03F
:1006B0000E94B901811160C06C2F83E00E94B901D2
:1006C00081115CC08FED88B90000C6B16C2F80E04D
:1006D0000E94B901811154C06C2F81E00E94B901C0
:1006E000811150C06C2F82E00E94B90181114CC071
:1006F0006C2F83E00E94B901811148C08FEB88B94B
:100700000000C6B16C2F80E00E94B901811140C089
:100710006C2F81E00E94B90181113CC06C2F82E0F6
:100720000E94B901811138C06C2F83E00E94B90189
:10073000811134C08FE788B90000C6B16C2F80E00A
:100740000E94B90181112CC06C2F81E00E94B90177
:10075000811128C06C2F82E00E94B901811124C050
:100760006C2F83E00E94B9018823F9F084E41DC056
:1007700081E31BC084E319C087E317C08AE215C078
:1007800082E313C085E311C088E30FC080E30DC08E
:1007900083E30BC086E309C089E307C083E205C099
:1007A00081E403C082E401C083E4CF91089590E026
:1007B0008534910528F5FC01EA5BFF4F0C945A053E
:1007C0009FE121C091E01FC092E01DC093E01BC0DB
:1007D00094E019C095E017C096E015C097E013C0EB
:1007E00098E011C099E00FC09AE00DC09BE00BC0EB
:1007F0009CE009C09DE007C09EE005C09FE003C0EB
:100800009BE101C090E085B1807E892B85B9089578
:10081000240F689F200D1124822F0895462F21E078
:1008200060E10E9408040E94D30008950E94CF0056
:1008300008950E94F20081E090E00E94AC000895CB
:10084000CF93DF93EC0160B180E00E94B901682F83
:10085000CE010E948401EC01029719F483E50E9405
:100860001904CE01DF91CF9108950F931F93CF9379
:10087000DF938B01EC0107C089910E94F20081E0B7
:1008800090E00E94AC00C017D107B0F3DF91CF9188
:100890001F910F910895CF92DF92EF92FF921F93D5
:1008A000CF93DF936B017C0110E031C08BE0189F88
:1008B000E0011124CF5ADE4FD0934C01C0934B017D
:1008C0008D819E81AF81B88549815A816B817C8100
:1008D00084179507A607B70788F0E985FA85888108
:1008E000082E000C990B09958883E0914B01F0913B
:1008F0004C01158216821782108608C08C0D9D1D32
:10090000AE1DBF1D8D839E83AF83B8871F5F1330DD
:1009100068F2DF91CF911F91FF90EF90DF90CF9021
:1009200008954FEF60E081E40E94420140E06FEFE4
:1009300082E40E9442014FE060EF83E40E944201A2
:1009400040E06FEF84E40E9442010895CF92DF926D
:10095000EF92FF920F931F937BE0879FC0011124BA
:10096000FC01EF5AFE4F608321833283438354831B
:10097000E582F68207831087D286C1861F910F9188
:10098000FF90EF90DF90CF900895CF936091520148
:10099000709153018091540190915501C1E00DC0B7
:1009A0002BE0C29FF0011124EF5AFE4F21813281CA
:1009B000438154810E940903CF5FC33088F3CF91F4
:1009C0000895CF92DF92EF92FF920F931F930F2E15
:1009D000F0E2CF2EF4E0DF2EF02D12E3E12EF12C29
:1009E00000E010E022E330E040E050E060E080E032
:1009F0000E94A6040F2EF6E3CF2EF1E0DF2EF02D9D
:100A000022E330E040E050E060E081E00E94A60494
:100A10000F2EF9E3CF2EF1E0DF2EF02D22E330E0B0
:100A200040E050E060E082E00E94A6041F910F9138
:100A3000FF90EF90DF90CF9008950E9491040E9464
:100A4000E1040E94C5046B017C010E94BD020E946A
:100A500043020E94DD000E94CF00C701B6010E9440
:100A60004B0480914A018823E1F310924A01F5CFAB
:100A7000A1E21A2EAA1BBB1BFD010DC0AA1FBB1FA2
:100A8000EE1FFF1FA217B307E407F50720F0A21B14
:100A9000B30BE40BF50B661F771F881F991F1A9481
:100AA00069F760957095809590959B01AC01BD01AB
:100AB000CF010895EE0FFF1F0024001C0BBE07900E
:100AC000F691E02D09940E94100608F481E0089543
:100AD0000E947C050C944B060E94440658F00E942C
:100AE0003D0640F029F45F3F29F00C943406511183
:100AF0000C947F060C943A060E945C0668F39923D6
:100B0000B1F3552391F3951B550BBB27AA27621709
:100B10007307840738F09F5F5F4F220F331F441F16
:100B2000AA1FA9F335D00E2E3AF0E0E832D091504A
:100B30005040E695001CCAF72BD0FE2F29D0660F37
:100B4000771F881FBB1F261737074807AB07B0E87A
:100B500009F0BB0B802DBF01FF2793585F4F3AF080
:100B60009E3F510578F00C9434060C947F065F3F4D
:100B7000E4F3983ED4F3869577956795B795F79506
:100B80009F5FC9F7880F911D9695879597F90895EE
:100B9000E1E0660F771F881FBB1F6217730784078A
:100BA000BA0720F0621B730B840BBA0BEE1F88F799
:100BB000E09508950E94E1056894B1110C947F06B8
:100BC00008950E94640688F09F5798F0B92F9927DE
:100BD000B751B0F0E1F0660F771F881F991F1AF028
:100BE000BA95C9F714C0B13091F00E947E06B1E009
:100BF00008950C947E06672F782F8827B85F39F008
:100C0000B93FCCF3869577956795B395D9F73EF4C0
:100C100090958095709561957F4F8F4F9F4F089568
:100C2000990F0008550FAA0BE0E8FEEF16161706FD
:100C3000E807F907C0F012161306E407F50798F065
:100C4000621B730B840B950B39F40A2661F0232B7E
:100C5000242B252B21F408950A2609F4A140A695FA
:100C60008FEF811D811D089597F99F6780E870E0DF
:100C700060E008959FEF80EC089500240A94161612
:100C8000170618060906089500240A94121613067A
:100C9000140605060895092E0394000C11F4882308
:100CA00052F0BB0F40F4BF2B11F460FF04C06F5F24
:100CB0007F4F8F4F9F4F089557FD9058440F551FFA
:100CC00059F05F3F71F04795880F97FB991F61F0CE
:100CD0009F3F79F087950895121613061406551F45
:100CE000F2CF4695F1DF08C0161617061806991FB1
:100CF000F1CF86957105610508940895E894BB27A6
:100D000066277727CB0197F908950E94100608F40B
:100D10008FEF08950E949D060C944B060E943D069D
:100D200038F00E94440620F0952311F00C9434060C
:100D30000C943A0611240C947F060E945C0670F312
:100D4000959FC1F3950F50E0551F629FF001729F70
:100D5000BB27F00DB11D639FAA27F00DB11DAA1F7F
:100D6000649F6627B00DA11D661F829F2227B00DCC
:100D7000A11D621F739FB00DA11D621F839FA00D57
:100D8000611D221F749F3327A00D611D231F849FA7
:100D9000600D211D822F762F6A2F11249F575040FE
:100DA0009AF0F1F088234AF0EE0FFF1FBB1F661F79
:100DB000771F881F91505040A9F79E3F510580F042
:100DC0000C9434060C947F065F3FE4F3983ED4F312
:100DD000869577956795B795F795E7959F5FC1F7E6
:100DE000FE2B880F911D9695879597F90895F89495
:020DF000FFCF33
:100DF20001000000A4D082437BD49243A4D0A44338
:100E0200719DAE439A19C4430000DC43A4F0F6433B
:100E120000D0024400000002000000002501000092
:100E220000000FF0000000000706050403020100A5
:060E3200070800FFFF00AD
:00000001FF
